:400000000080002011000000C5190000C519000008B5044B1A6803F53F5302331A6001F0D9FC00BFFA46004010B5054C237833B9044B13B10448AFF300800123237010BDE5
:400040005081FF1F00000000B0420000084B10B51BB108490848AFF300800848036803B910BD074B002BFBD0BDE81040184700BF000000005481FF1FB0420000C880FF1F0E
:4000800000000000F8B5C14CB4F86230A4F86430B4F86030A4F86230B4F85E30A4F86030B4F85C30A4F85E30B4F85A30A4F85C30B4F85830A4F85A30B4F85630A4F85830D8
:4000C000B4F85430A4F85630B4F85230A4F85430B4F85030A4F85230B4F84E30A4F85030B4F84C30A4F84E30B4F84A30A4F84C30B4F84830A4F84A30B4F84630A4F84830E0
:40010000B4F84430A4F84630B4F84230A4F84430B4F84030A4F84230E38FA4F84030A38FE387638FA387238F6387E38E2387A38EE386638EA386238E6386E38D2386A38DB1
:40014000E385638DA385238D6385E38C2385A38CE384638CA384238C6384E38B2384A38BE383638BA383238B6383E38A2383A38AE382638AA382238A6382E3892382A38937
:40018000E3816389A38123896381E3882381A388E3806388A3802388638001F0A1FD80B220807B4B1B78DBB2022B05D0784B1B78DBB2032B40F0418303F0E2FC754CD4E965
:4001C000002303F053FD06460F46704D688803F0D7FCD4E9022303F049FD02460B463046394603F091FB06460F46A88803F0C8FCD4E9042303F03AFD02460B463046394639
:4002000003F082FB06460F46E88803F0B9FCD4E9062303F02BFD02460B463046394603F073FB06460F46288903F0AAFCD4E9082303F01CFD02460B463046394603F064FBE6
:4002400006460F46688903F09BFCD4E90A2303F00DFD02460B463046394603F055FB06460F46A88903F08CFCD4E90C2303F0FEFC02460B463046394603F046FB06460F4621
:40028000E88903F07DFCD4E90E2303F0EFFC02460B463046394603F037FB06460F46288A03F06EFCD4E9102303F0E0FC02460B463046394603F028FB06460F46688A03F049
:4002C0005FFCD4E9122303F0D1FC02460B463046394603F019FB06460F46A88A03F050FCD4E9142303F0C2FC02460B463046394603F00AFB06460F46E88A03F041FCD4E91F
:40030000162303F0B3FC02460B463046394603F0FBFA06460F46288B03F032FCD4E9182303F0A4FC02460B463046394603F0ECFA06460F46688B03F023FCD4E91A2303F072
:4003400095FC02460B463046394603F0DDFA06460F46A88B03F014FCD4E91C2303F086FC02460B463046394603F0CEFA06460F46E88B03F005FCD4E91E2303F077FC02464F
:400380000B463046394603F0BFFA05E08481FF1FF181FF1F0082FF1F06460F46288C03F0EFFBD4E9202303F061FC02460B463046394603F0A9FA06460F46688C03F0E0FB0A
:4003C000D4E9222303F052FC02460B463046394603F09AFA06460F46A88C03F0D1FBD4E9242303F043FC02460B463046394603F08BFA06460F46E88C03F0C2FBD4E926230A
:4004000003F034FC02460B463046394603F07CFA06460F46288D03F0B3FBD4E9282303F025FC02460B463046394603F06DFA06460F46688D03F0A4FBD4E92A2303F016FC70
:4004400002460B463046394603F05EFA06460F46A88D03F095FBD4E92C2303F007FC02460B463046394603F04FFA06460F46E88D03F086FBD4E92E2303F0F8FB02460B4667
:400480003046394603F040FA06460F46288E03F077FBD4E9302303F0E9FB02460B463046394603F031FA06460F46688E03F068FBD4E9322303F0DAFB02460B463046394676
:4004C00003F022FA06460F46A88E03F059FBD4E9342303F0CBFB02460B463046394603F013FA06460F46E88E03F04AFBD4E9362303F0BCFB02460B463046394603F004FAE6
:4005000006460F46288F03F03BFBD4E9382303F0ADFB02460B463046394603F0F5F906460F46688F03F02CFBD4E93A2303F09EFB02460B463046394603F0E6F906460F46BF
:40054000A88F03F01DFBD4E93C2303F08FFB02460B463046394603F0D7F906460F46E88F03F00EFBD4E93E2303F080FB02460B463046394603F0C8F906460F46B5F84000DF
:4005800003F0FEFA04F58073D3E9002303F06EFB02460B463046394603F0B6F906460F46B5F8420003F0ECFA04F58473D3E9002303F05CFB02460B463046394603F0A4F959
:4005C00006460F46B5F8440003F0DAFA04F58873D3E9002303F04AFB02460B463046394603F092F906460F46B5F8460003F0C8FA04F58C73D3E9002303F038FB02460B46AC
:400600003046394603F080F906460F46B5F8480003F0B6FA04F59073D3E9002303F026FB02460B463046394603F06EF906460F46B5F84A0003F0A4FA04F59473D3E9002341
:4006400003F014FB02460B463046394603F05CF906460F46B5F84C0003F092FA04F59873D3E9002303F002FB02460B463046394603F04AF906460F46B5F84E0003F080FAE9
:4006800004F59C73D3E9002303F0F0FA02460B463046394603F038F906460F46B5F8500003F06EFA04F5A073D3E9002303F0DEFA02460B463046394603F026F906460F46D4
:4006C000B5F8520003F05CFA04F5A473D3E9002303F0CCFA02460B463046394603F014F906460F46B5F8540003F04AFA04F5A873D3E9002303F0BAFA02460B46304639467B
:4007000003F002F906460F46B5F8560003F038FA04F5AC73D3E9002303F0A8FA02460B463046394603F0F0F806460F46B5F8580003F026FA04F5B073D3E9002303F096FAD6
:4007400002460B463046394603F0DEF806460F46B5F85A0003F014FA04F5B473D3E9002303F084FA02460B463046394603F0CCF806460F46B5F85C0003F002FA04F5B87307
:40078000D3E9002303F072FA02460B463046394603F0BAF806460F46B5F85E0003F0F0F904F5BC73D3E9002303F060FA02460B463046394603F0A8F806460F46B5F860001D
:4007C00003F0DEF904F5C073D3E9002303F04EFA02460B463046394603F096F806460F46B5F8620003F0CCF904F5C473D3E9002303F03CFA02460B463046394603F084F83D
:4008000006460F46B5F8640003F0BAF904F5C874D4E9002303F02AFA02460B463046394603F072F800224FF0814303F06DF803F0B7FC80B201F0B0FAF8BD03F0A1F9D24CF9
:40084000D4E9002303F012FA06460F46CF4D688803F096F9D4E9022303F008FA02460B463046394603F050F806460F46A88803F087F9D4E9042303F0F9F902460B463046AE
:40088000394603F041F806460F46E88803F078F9D4E9062303F0EAF902460B463046394603F032F806460F46288903F069F9D4E9082303F0DBF902460B463046394603F0DA
:4008C00023F806460F46688903F05AF9D4E90A2303F0CCF902460B463046394603F014F806460F46A88903F04BF9D4E90C2303F0BDF902460B463046394603F005F806466E
:400900000F46E88903F03CF9D4E90E2303F0AEF902460B463046394602F0F6FF06460F46288A03F02DF9D4E9102303F09FF902460B463046394602F0E7FF06460F46688AEC
:4009400003F01EF9D4E9122303F090F902460B463046394602F0D8FF06460F46A88A03F00FF9D4E9142303F081F902460B463046394602F0C9FF06460F46E88A03F000F932
:40098000D4E9162303F072F902460B463046394602F0BAFF06460F46288B03F0F1F8D4E9182303F063F902460B463046394602F0ABFF06460F46688B03F0E2F8D4E91A23AE
:4009C00003F054F902460B463046394602F09CFF06460F46A88B03F0D3F8D4E91C2303F045F902460B463046394602F08DFF06460F46E88B03F0C4F8D4E91E2303F036F9EE
:400A000002460B463046394602F07EFF06460F46288C03F0B5F8D4E9202303F027F902460B463046394602F06FFF06460F46688C03F0A6F8D4E9222303F018F902460B46FE
:400A40003046394602F060FF06460F46A88C03F097F8D4E9242303F009F902460B463046394602F051FF06460F46E88C03F088F8D4E9262303F0FAF802460B46304639460F
:400A800002F042FF06460F46288D03F079F8D4E9282303F0EBF802460B463046394602F033FF06460F46688D03F06AF8D4E92A2303F0DCF802460B463046394602F024FF5A
:400AC00006460F46A88D03F05BF8D4E92C2303F0CDF802460B463046394602F015FF06460F46E88D03F04CF8D4E92E2303F0BEF802460B463046394602F006FF06460F4658
:400B0000288E03F03DF8D4E9302303F0AFF802460B463046394602F0F7FE06460F46688E03F02EF8D4E9322303F0A0F802460B463046394602F0E8FE06460F46A88E03F03B
:400B40001FF8D4E9342303F091F802460B463046394602F0D9FE06460F46E88E03F010F8D4E9362303F082F802460B463046394602F0CAFE06460F46288F03F001F8D4E999
:400B8000382303F073F803E00082FF1F8481FF1F02460B463046394602F0B6FE06460F46688F02F0EDFFD4E93A2303F05FF802460B463046394602F0A7FE06460F46A88FCB
:400BC00002F0DEFFD4E93C2303F050F802460B463046394602F098FE06460F46E88F02F0CFFFD4E93E2303F041F802460B463046394602F089FE06460F46B5F8400002F010
:400C0000BFFF04F58073D3E9002303F02FF802460B463046394602F077FE06460F46B5F8420002F0ADFF04F58473D3E9002303F01DF802460B463046394602F065FE0646E8
:400C40000F46B5F8440002F09BFF04F58873D3E9002303F00BF802460B463046394602F053FE06460F46B5F8460002F089FF04F58C73D3E9002302F0F9FF02460B4630462A
:400C8000394602F041FE06460F46B5F8480002F077FF04F59073D3E9002302F0E7FF02460B463046394602F02FFE06460F46B5F84A0002F065FF04F59473D3E9002302F067
:400CC000D5FF02460B463046394602F01DFE06460F46B5F84C0002F053FF04F59873D3E9002302F0C3FF02460B463046394602F00BFE06460F46B5F84E0002F041FF04F5C0
:400D00009C73D3E9002302F0B1FF02460B463046394602F0F9FD06460F46B5F8500002F02FFF04F5A073D3E9002302F09FFF02460B463046394602F0E7FD06460F46B5F8C2
:400D4000520002F01DFF04F5A473D3E9002302F08DFF02460B463046394602F0D5FD06460F46B5F8540002F00BFF04F5A873D3E9002302F07BFF02460B463046394602F0D7
:400D8000C3FD06460F46B5F8560002F0F9FE04F5AC73D3E9002302F069FF02460B463046394602F0B1FD06460F46B5F8580002F0E7FE04F5B073D3E9002302F057FF02465F
:400DC0000B463046394602F09FFD06460F46B5F85A0002F0D5FE04F5B473D3E9002302F045FF02460B463046394602F08DFD06460F46B5F85C0002F0C3FE04F5B873D3E936
:400E0000002302F033FF02460B463046394602F07BFD06460F46B5F85E0002F0B1FE04F5BC73D3E9002302F021FF02460B463046394602F069FD06460F46B5F8600002F087
:400E40009FFE04F5C073D3E9002302F00FFF02460B463046394602F057FD06460F46B5F8620002F08DFE04F5C473D3E9002302F0FDFE02460B463046394602F045FD0646BF
:400E80000F46B5F8640002F07BFE04F5C874D4E9002302F0EBFE02460B463046394602F033FD03F07DF902F07BFE01F0FDFB03F09FF980B200F070FFF8BD00BF08B50F4B5D
:400EC0001B78013B072B14D8DFE803F00408130C131313100222094B1A700AE00422074B1A7006E00822054B1A7002E00122034B1A70024B187800F0B5FF08BDEB81FF1F52
:400F00002DE9F04786B0A04A1378303BDBB29F490B705378303BDBB29D4803709378303BDBB29C4E3370D378303BDBB29A4F3B700978C9B2027836783878C1EB411301EB1C
:400F40008301CF0002EB820202EB820293003B4406EB860251000B44184480B28F4B1880431E9BB2B3F57A7F11D3012001F01EF90021084601F074F9894801F005F9002107
:400F8000012001F06DF9874801F0FEF8E2E102F0F7FD75A3D3E9002302F068FE74A3D3E9002302F08DFFCDE904017F4B1B78DBB2012B4AD100227D4B1A70A046A9463FE043
:400FC0007A4B1B78DBB2192B26D0784D2878193802F0E6FDDDE9042302F048FE2F78FFB201F01AFB724E06EBC707C7E900012878193802F0D5FD60A3D3E9002302F036FED7
:401000002B7806EBC30602460B46D6E9000102F057FFC6E900010EE0644B1B78DEB256A3D3E90023DDE9040102F04AFF604B03EBC603C3E900015D4A13780133DBB21370DF
:401040005A4B1B78DBB2322BBAD9574B1B78DBB2022B56D10022554B1A704DE0534B1B78DBB2192B2ED0DFF8448198F80000193802F096FDDDE9042302F0F8FD98F8007056
:40108000FFB201F0C9FA044601F10045484E06EBC707C7E9004598F80000193802F080FD35A3D3E9002302F0E1FD98F8003006EBC30602460B46D6E9000102F001FFC6E9B5
:4010C000000114E0394B1B78DEB22BA3D3E90023DDE9040102F0F4FE02460B460020354902F010FC324B03EBC603C3E900012F4A13780133DBB213702C4B1B78DBB2322BA6
:40110000ACD9294B1B78DBB2032B40F0E180234B188802F035FD04460D460022264B02F0F3FB15A3D3E9002302F0A0FD14A3D3E9002302F0C5FECDE9000100221E4B20467C
:40114000294602F0DFFB0CA3D3E9002302F08EFD0BA3D3E9002302F0B3FECDE902010022124B1A70AEE000BFF1D4C853FB211940000000000070A740F1D4C853FB210940F9
:401180000000000000709740F881FF1FF281FF1F8181FF1FEA81FF1FEC81FF1FF481FF1FB8420000C8420000F181FF1FEE81FF1F0082FF1F0000F03F000059406A4B1B7828
:4011C000DBB2192B5BD0684C2078193802F0E8FC02460B46DDE9000102F048FD804689462078193802F0DCFC02460B46DDE9020102F03CFD06460F4694F800A05FFA8AFA6A
:401200004046494601F008FA584D05EBCA0ACAE900012078193802F0C3FC51A3D3E9002302F024FD94F8008005EBC80802460B46D8E9000102F044FEC8E900013046394607
:4012400001F0EAF906460F462078193802F0A8FC43A3D3E9002302F009FD02460B463046394602F02DFE237805EBC30502460B46D5E9000102F046FBC5E900011DE03A4B03
:401280001B78DCB236A3D3E90023DDE9000102F017FE06460F4632A3D3E90023DDE9020102F00EFE02460B463046394602F02AFB2E4B03EBC403C3E900012B4A13780133B7
:4012C000DBB21370284B1B78DBB2322B7FF676AF012000F06BFF0021084600F0C1FF244800F052FF0021012000F0BAFF214800F04BFF214C207800F055FF607800F052FF1D
:40130000A07800F04FFFE07800F04CFF40F6B83001F01CF9012000F049FF0021084600F09FFF164800F030FF0021012000F098FF134800F029FF00F0C5FC00F01FFD00F0E4
:40134000FDFB00F0D5FD0F4800F06EFD00F058FE00F0BCFD06B0BDE8F08700BFAFF30080F1D4C853FB210940EE81FF1F0082FF1FD8420000E8420000F881FF1FF0420000E0
:40138000F84200008500000010B500F05BFD8C4B18708C4B1B78DBB2012B13D1884B1B78DBB2022B07D0042B09D0012B0AD13122854B1A7006E03222834B1A7002E033227F
:4013C000814B1A707F4B1B78DBB2022B13D17C4B1B78DBB2022B07D0042B09D0012B0AD13422794B1A7006E03522774B1A7002E03622754B1A70734B1B78DBB2042B13D100
:401400006F4B1B78DBB2022B07D0042B09D0012B0AD137226C4B1A7006E038226A4B1A7002E03922684B1A70664B1B78DBB2082B13D1634B1B78DBB2022B07D0042B09D06A
:40144000012B0AD12A22604B1A7006E030225E4B1A7002E023225C4B1A705C4B1B78DBB2032B23D1584B1B78DBB22A2B1ED10021084600F0F5FE564C204600F085FE002143
:40148000084600F0EDFE534800F07EFE0021012000F0E6FE204600F077FE0021012000F0DFFE4D4800F070FEFFF72AFD474B1B78DBB2022B5DD1444B1A78303A474B1B783F
:4014C000DBB29A4228D0464C2378DBB23E490A78D2B24448C254087800F064FE23780133DBB223702378DBB2042B42D10021084600F0B6FE364800F047FE0021084600F052
:40150000AFFE394800F040FE4FF4FA6001F01EF803222E4B1A702CE0304B1B783033DBB2294A13702E4C2378DBB21178C9B22D48C154107800F036FE23780133DBB22370B8
:401540002378DBB2042B14D10021084600F088FE1F4800F019FE0021084600F081FE224800F012FE4FF4FA6000F0F0FF0322174B1A70164B1B78DBB2012B1BD1124B1B787E
:40158000DBB2322B0AD0332B0ED0312B12D10122124B1A7002220D4B1A700BE002230F4A13700A4A137005E003220C4B1A700222064B1A70FA2000F0C9FF00F04BFC10BD59
:4015C000F081FF1FEB81FF1FED81FF1F8081FF1F044300001843000028430000F181FF1FEF81FF1FF881FF1F2C43000008B562B600F028FE00F0CEFC3C4800F059FC3C4804
:4016000000F0F0FC01233B4A13703B4A137000233A4A13703A4A13703A4A13703A4A13703A4A13703A4A1380334B1B78DBB2012B09D1384800F0A8FD0021012000F010FE44
:40164000354800F0A1FD2C4B1B78DBB2022B47D12A4B1B7813F0FF0F42D1012000F0A6FD00F034FC2D4800F08FFD0021012000F0F7FD2B4800F088FD40F6C41000F066FF25
:401680000021084600F0ECFD264800F07DFD0021084600F0E5FD244B1B78DBB2022B07D0032B09D0012B0AD1204800F06DFD06E01E4800F069FD02E01D4800F065FD00210A
:4016C000012000F0CDFD174800F05EFD0021012000F0C6FD174800F057FD044800F0E8FB40F6C41000F032FF9EE700BF89130000BD0E0000EB81FF1F8081FF1FEF81FF1FA1
:40170000EC81FF1FEA81FF1F8181FF1FF281FF1FF481FF1F384300004C430000604300007043000004430000F181FF1F8043000090430000A4430000F0B40022174611E089
:4017400050F82760F3B226F0FF0608E001EB420511F812406D78A5550132013BDBB2002BF4D101371F2FEBD9F0BC704708B50A46002102F094FD08BDF8B5194B1B78DBB245
:40178000184E3478E4B2184F3D78EDB203F00701164A11701B090132137044F00303337045F003033B708022114B1A70022220331A7040230F4A137002321370202302F297
:4017C0008D121370082190321170033213700A2000F0D2FE3D7034704422074B1A70F8BDCF010049F8460040F94600406E5800401D510040095900407658004008B502F048
:4018000043FD08BD10B54FF49572204B1A8018231F4A137040F27511023211800232137004221C491C48FFF7E9FF02211B4B197008224FF040231A70194B1B78DBB2194A18
:4018400013700622184B1A70A3F5FE7300221A8007201870154802704824023004701A70033B197004220A331A70114A137843F003031370013A137843F001031370013AE0
:40188000137843F08003137010BD00BF80400040824000402002004800410040004300400D010049A14600400042004006400040A243004038B572B661222F4B1A70FFF72B
:4018C000A1FF2E4A137843F00403137000240CE02B4D630019194A0011462A44084691882858FFF743FF0134E4B2072CF0D925494FF09040FFF720FF04212348FFF736FF29
:40190000224A137843F0020313701032137843F0020313701E4C237843F040032370A2F58632513A137843F010031370082219491948FFF763FF082218491948FFF75EFFAD
:40194000082218491848FFF759FF082217491848FFF754FF082217491748FFF74FFF174A137843F008031370FFF706FF0E2221461348FFF743FF38BD00480040E846004011
:40198000AC430000800000480076004003500140A0430040F80100480251004000020048C251004008020048125100401002004822510040180200483251004022430040C6
:4019C000B043004008B502F033FC03680C2B00D1FEE7FEE708B5104E104D16E029686B68AC68002204E051F8040B43F8040B0432A242F8D1E868002203E0002143F8041B58
:401A000004328242F9D11035013E002EE6D102F015FCFFF7EBFDFEE701000000E045000008B5114A114B1A60114A136843F40073136000230AE0032B03D80E4A52F82310C1
:401A400000E00D490D4A42F8231001332F2BF2D90B4B1A780B4B1A70084A0B4B1A60FFF729FF00F0A5FC08BD0004FA050CED00E014ED00E000000000C51900000080FF1F7C
:401A8000BC760040C080FF1F08ED00E0084A137843F0010313701032137843F00103137002F64D32137843F001031370704700BFA3430040014B1870704700BF034F00402F
:401AC000014B1880704700BF044F0040014B1880704700BF064F004008B5154A137803F0010313700232137803F0FC031370114B1A7802F0CF021A701A7842F030021A70FA
:401B00001A7802F0F0021A701A7842F00F021A70094A137843F0010313704220FFF7D0FF4220FFF7D3FF0020FFF7C4FF08BD00BF004F00400B4F0040014F004008B5054B3A
:401B40001B7823B9FFF7C8FF0122024B1A70FFF79DFF08BD6C81FF1F08B50A280FD00C2802D0082806D102E04FF4805209E04FF4807206E0002000F0E7FC002201E04FF4CE
:401B800080620021094B198042F2107303FB02F303F6C413064A82FB0302DB17C3EBE223044A1360044B198008BD00BF9E83FF1FAD8BDB689883FF1F9C83FF1F10B500F032
:401BC00023FD04461E4A137843F0020313701032137843F0020313701A3A137843F0010313701032137843F00103137002F5AA521A32137843F0030313701822114B1A707F
:401C0000013B1A7842F040021A701A7802F0FC021A70CE22053B1A700222A3F59753123B1A70094A137843F0080313700A2000F0A3FC0122054B1A60204600F0E9FC10BD48
:401C4000AB4300400E5900402F5B004080E200E010B504460A280DD00C2802D0082804D101E0C22207E0422205E0002000F06CFCC22200E08222034B1A702046FFF76CFFE6
:401C800010BD00BF0A59004008B5102000F006FB0721002000F08EFC0749002000F076FC064A137843F0060313700A20FFF7D0FF0022034B1A8008BDF91C00000959004074
:401CC000A083FF1F08B5054B1B7823B9FFF7DCFF0122024B1A70FFF771FF08BD6D81FF1F034B188880B2034B1B88C01A00B27047A25B00409C83FF1F704700BF70B54FF479
:401D0000804341F6FF720121084600F0D1FA0C4E354605F8040B00F0DBFB0246094C20700123042100F0EEFB45F68332A9B2207800F0FCFB2178307800F09CFB70BD00BF99
:401D40007081FF1FCC80FF1F08B500F00DFB034B1B78FF2B01D1FFF7D1FF08BDCC80FF1F08B50121044B187800F03CFB00F012FB00F0BCFA08BD00BF7081FF1F08B5054B3B
:401D80001B7A23B9FFF7E0FF0122024B1A72FFF7E7FF08BD7081FF1F38B500F00305C0F38704B0F57F7F02D9002000F0CDFBFF2C08D0002318E00E4A1A44FF21117101330E
:401DC000DBB200E00023032BF5D938BDC5F10402934203DA064A1A44147103E0044A1A44611C11710133DBB2032BEFD938BD00BF7081FF1F014B1B689864704708ED00E062
:401E00004001C0B2014B1870704700BF02E400E00422014B1A60704700E100E00422014B1A60704780E100E010B50446FFF7F6FF2046FFF7DFFF0720FFF7E2FFFFF7E8FF88
:401E400010BD00BF024B187800F00700704700BF21510040024B187800F00700704700BF82450040044A137803F0F00300F00F0018431070704700BF00510040014B1B681A
:401E8000D864704708ED00E04001C0B2014B1870704700BF03E400E00822014B1A60704700E100E00822014B1A60704780E100E010B50446FFF7F6FF2046FFF7DFFF0720EB
:401EC000FFF7E2FFFFF7E8FF10BD00BF08B5FFF7E9FF0248FFF7D2FF08BD00BFC5190000024A137843F08003137070477B640040024A137803F07F03137070477B64004009
:401F0000014B1870704700BF8C640040014B1878704700BF6C64004008B50146014800F061FB08BD2A640040024B186820F07F40704700BF4A64004008B50146014800F05C
:401F400051FB08BD0A64004008B501E0FFF7ECFFFFF7DCFF10F0080FF8D108BD10B50B4C2046FFF7D9FF2046FFF7E6FF00F04CFB074A137843F01003137000F049FBFFF716
:401F8000E3FF0020FFF7BCFF10BD00BF9F8601009C64004008B5054B1B7823B9FFF7DEFF0122024B1A70FFF79BFF08BD7981FF1F014B1B685864704708ED00E04001C0B2FC
:401FC000014B1870704700BF01E400E00222014B1A60704700E100E00222014B1A60704780E100E010B50446FFF7F6FF2046FFF7DFFF0720FFF7E2FFFFF7E8FF10BD00BFF3
:4020000008B5FFF7E9FF0248FFF7D2FF08BD00BFC519000010B50B4C237803F09F032370237803F0F00323702378184340F010002070012000F0A0FA237803F0EF0323701B
:4020400010BD00BFC051004038B505460E4C237843F020032370237803F0BF032370002000F08AFA237803F0F003237023781D4345F010052570012000F07EFA237803F0F1
:40208000EF03237038BD00BFC051004070B5354B1A7802F08002D2B21A7033490A7802F0F00242F00F020A7001310A7802F0F0020A7001310A7802F0F0020A701A7802F096
:4020C000DF021A701A7842F040021A704FF4CA76002000F051FA234D2B7843F010032B70012000F049FA214B1C78E4B22B7803F0EF032B70002000F03FFA04F00804E4B227
:402100002B7843F010032B70012000F035FA2B7803F0EF032B7014B90A2000F02DFA013E0CB1002ED4D10F4A137803F0BF031370137803F08003DBB213700232137803F0FC
:40214000F00313700132137803F0F00343F00F0313700132137803F0F00343F00F03137070BD00BFC0510040C2510040C151004010B50446FFF78AFF2009FFF765FF04F02A
:402180000F00FFF761FF10BD38B505460078012404E0FFF7EDFF285D0134E4B20028F8D138BD00BF08B5FFF7E3FF08BD10B50446FFF76CFF2009FFF72DFF04F00F00FFF74F
:4021C00029FF10BD08B5282000F0C0F90320FFF721FF052000F0BAF90320FFF71BFF0F2000F0B4F90320FFF715FF012000F0AEF90220FFF70FFF052000F0A8F90620FFF75F
:40220000D5FF0E20FFF7D2FF2C20FFF7CFFF0820FFF7CCFF0120FFF7C9FF0C20FFF7C6FF0320FFF7C3FF052000F090F908BD00BF08B50C20FFF7BAFF0122014B1A7008BDC3
:402240007A81FF1F08B5054B5B7823B9FFF7BAFF0122024B5A70FFF7EBFF08BD7A81FF1F08B5032819D8DFE800F002070D1381F08000FFF79BFF08BDA1F14000C0B2FFF7A9
:4022800095FF08BDA1F16C00C0B2FFF78FFF08BDA1F12C00C0B2FFF789FF08BD034B1A7800F0F80010431870704700BF02410040F0B583B016461F460B4D00242C700194B7
:4022C000009423460A460146204600F0DFF83A463146287800F0B4F80221287800F09EF8287803B0F0BD00BFCD80FF1F054A137843F0080313701032137843F0080313704E
:40230000704700BFA8430040054B1A7802F0FD021A701A7800F0020010431870704700BF2C580040064B1B78C3F3810303F19243063393F83831DBB2024A1370704700BF20
:402340002C5800400B46004008B5064B1A7802F0F3021A701A7800F00C0010431870FFF7E1FF08BD2C58004008B50023084A13700132137002F27222137843F008031370F0
:402380000420FFF7E1FF0220FFF7BEFF08BD00BF2C580040054A137843F0010313701032137843F001031370704700BFA24300400B4A7F2313708021517007E0DA0002F1C0
:4023C000804202F5F042013BDBB21370002BF5D1DB0003F1804303F5F04300221A707047D080FF1F172815D831B103010A495A5C42F020025A5405E0030107495A5C02F029
:40240000DF025A540001044A835C43F00103835400207047012070471070004017280BD80001064A835C03F0F103490001F00E011943815400207047012070471070004040
:4024400041F6FF73994201D14FF4005141F6FF739A4201D14FF40052172808D8C00000F1804000F5EC408180C280002070470120704700BF172805D8034B03EB0010417209
:4024800000207047012070471070004017281BD810B4C00000F1804404F5EC44D201D2B201F07F01114321709DF804201201D2B203F00F03134363709DF8083003F00F031C
:4024C000A3700020E07001E00120704710BC704710B500F099F80A4B5B78182B0BD9084A1478013B5370E30003F1804303F5F0431B78137000E0FF2400F08AF8204610BD28
:40250000D080FF1F10F0800F0CD111F4704F0BD1C00000F1804000F5F04001808270C37000207047012070470120704710F0800F08D1C00000F1804000F5F0408180C2801D
:40254000002070470120704701BE704710B5044605E0084B186800F04FF8A4F50044B4F5004FF6D8034B586800FB04F000F044F810BD00BFD880FF1F08B5034B1B7A00FBCF
:4025800003F000F039F808BDD880FF1F70B504460E46074B1D681F2802D90020FFF7D4FF04F01F04103455F8240045F8246070BD08ED00E038B504460D46072902D90020E3
:4025C000FFF7C2FF1F2C02D90020FFF7BDFF04F01F0000F1604000F564406D01EDB2057038BD00BFCBB20370C1F307234370C1F307418170704700BF0230800803D000BF89
:4026000001380046FCD17047EFF3108072B6704780F31088704700BF30B5214A21F00043934287B01BDD1F4A934205DD02460B4601F068F907B030BD02AA00F06DF800F07D
:40264000030001281ED0022811D0DDE9042300B3DDE9020100F078FA01F10041EAE7002300930022002300F08BFF07B030BD01230093DDE90201DDE9042300F081FF01F17E
:402680000041D7E7DDE90423DDE9020100F05CFAD0E70124DDE90201009400F071FFC9E7FB21E93FFFFFEF7FF8B5C1F30A56A6F2FF34132C0D460FDC002C01F000424FF07F
:4026C000000020DB124B43FA04F421EA040545EA020102461046F8BD332C09DDB4F5806F0246F7D102460B4601F00EF90246F1E74FF0FF31A6F2134621FA06F620EA06028D
:4027000029461046F8BD114602461046F8BD00BFFFFF0F00000000002DE9F04F944C21F00047A7428FB040F381801446914A0E46974226DC84A3D3E90023002940F3A081D9
:4027400001F0E0F88C4B80469F42894600F083807FA3D3E9002301F0D5F802460B464046C4E90023494601F0CDF879A3D3E9002301F0C8F80125C4E9020128460FB0BDE809
:40278000F08F7E4A974240F383807D4A974258DC3D15A5F21645A7EB05518B46824601F0FFFC01F0FDF98046894642464B4650465946CDE9088901F0A5F80022714B01F0D0
:4027C00055FA8B46824601F0EBFC01F0E9F98046894642464B4650465946CDE90A8901F091F80022674B01F041FA00220023CDE90C0101F0A3FC002800F06A81002340465C
:402800004946002201F09AFC002814BF012302235D480221019000912A46214608A800F0B7FA002EC0F24A81054606E0C2E9000100250024C2E90245002528460FB0BDE850
:40284000F08F02460B4601F05DF80025C4E90201C4E90001F1E740A3D3E9002301F052F83FA3D3E9002306460F4601F04BF802460B463046C4E90023394601F043F838A3A7
:40288000D3E9002301F03EF80125C4E90201D4E700F02CFF34A3D3E900238046894601F0E5F90022394B01F02FF801F079FC054601F076F924A3D3E90023CDE9040101F02B
:4028C000D5F902460B464046494601F01BF820A3D3E9002382468B46DDE9040101F0C6F91F2DCDE9020155DC294B6A1E53F822309F424FD002460B465046594601F002F81A
:4029000002460B4681468846C4E900234A4643465046594600F0F6FFDDE9022300F0F2FF02460B46002EC4E9022386DA4A4608F1004301F1004184E80C00E160A0606D423A
:402940007BE700BFAFF3008000004054FB21F93F3163621A61B4D03D0000601A61B4D03D7370032E8A19A33B83C8C96D305FE43FFB21E93F7BD90240FB21F93FFB213941D2
:40298000FFFFEF7F000070415C4400000000E03FDC430000DDE902235046594600F0B2FF3F15C1F30A53FB1A102B81468846C4E90001ABDD58A3D3E90023DDE9040101F045
:4029C00055F98046894602460B465046594600F099FFCDE9060102460B465046594600F091FF42464B4600F08DFF4DA3D3E9002380468946DDE9040101F038F942464B4694
:402A000000F080FF02460B46CDE90201DDE9060100F078FF0B4602468846C1F30A517F1A312F8146C4E9002372DD3FA3D3E90023DDE9040101F01AF98046894602460B468E
:402A4000DDE9060100F05EFF02460B4682468B46DDE9060100F056FF42464B4600F052FF33A3D3E9002380468946DDE9040101F0FDF842464B4600F045FFCDE9020139E77D
:402A800000F042FF2E4B80469F42894622D02AA3D3E9002300F038FF02460B464046C4E90023494600F02EFF23A3D3E9002300F02BFF4FF0FF35C4E90201BEE66268E368FB
:402AC00002F1004203F1004345426260E360B4E603239DE610A3D3E9002300F015FF10A3D3E9002306460F4600F00EFF02460B463046C4E90023394600F004FF08A3D3E91D
:402B0000002300F001FF4FF0FF35C4E9020194E6DDE906ABFAE600BF0000601A61B4D03D7370032E8A19A33B0000002E8A19A33BC14920259A837B393163621A61B4D03D9D
:402B4000FB21F93F000000002DE9F04F21F00046B6F1795F85B00C4692469B4605466BDA01F01EFB002800F0E7802A4623462846214601F07BF874A3D3E9002380468946E0
:402B800001F074F872A3D3E9002300F0BDFE42464B4601F06BF870A3D3E9002300F0B2FE42464B4601F062F86DA3D3E9002300F0ABFE42464B4601F059F86BA3D3E90023E6
:402BC00000F0A0FE42464B4601F050F868A3D3E9002300F099FE42464B4601F047F8CDE900010022644B4046494601F03FF8DDE9002306460F464046494601F037F852461F
:402C0000804689465B462846214601F02FF802460B464046494600F075FE02460B463046394600F06FFE02460B460020534900F069FE05B0BDE8F08F02460B4601F016F858
:402C400041A3D3E900238046894601F00FF840A3D3E9002300F058FE42464B4601F006F83DA3D3E9002300F04DFE42464B4600F0FDFF3BA3D3E9002300F046FE42464B46EB
:402C800000F0F4FF38A3D3E9002300F03BFE42464B4600F0EBFF36A3D3E9002300F034FE4B46424600F0E2FF354BCDE900019E4297DD344B00229E4238DCA6F500130020A9
:402CC0002E4916461F4600F01DFECDE902010022294B4046494600F0C9FF32463B4600F011FEDDE9002306460F464046494600F0BDFF5246804689465B462846214600F09F
:402D0000B5FF02460B464046494600F0FBFD02460B463046394600F0F5FD02460B46DDE9020100F0EFFD05B0BDE8F08F164B0026CDE90223154FCAE71049002005B0BDE878
:402D4000F08F00BFAFF30080D43888BEE9FAA8BDC4B1B4BD9EEE213EAD529C804F7E923E9015CB19A001FA3E7751C1166CC1563F4C5555555555A53F0000E03F0000F03FE6
:402D80003233D33F0000E93F0000E73F0000D23F2DE9F04F794CADF51D7D1F460B93D31E84FB0354DB17C3EBA403A69E744C23EAE37554F826406B1C26460994A3EB830317
:402DC0007C1E0D95029402EBC3032D1B341904900A91089316D42C44013422AEA79F08E057F8250000F0DCFE0135A542E6E9020108D0002DF4DA013500200021A542E6E935
:402E00000201F6D1099B002B2FDB099B74AADDF8089002EBC30B0DF5E47A029B002BC0F295810B9B0026C3EB090824AB03EBC808049B0027A3F1080524AB03EBC904F5E92E
:402E4000022374E8020100F011FF02460B463046394600F059FD444506460F46EFD1EAE90267DA4509F10109D7D1099B10A91D4603F18043023B9B001A1D0A440B440F9245
:402E80000E939CAB03EBC503002D53E928672BDD9CAB03EBC504A83C0DF13C0A0DF5E47B0022384B3046394600F0E0FE01F078F900F076FE0022344B8046894600F0D6FEC5
:402EC00002460B463046394600F01CFD01F068F974E802234AF8040F4946404600F014FD5C4506460F46DBD1089C30463946224600F08AFC00224FF07F5306460F4600F0D4
:402F0000B5FE00F0F9FB0022204B00F0AFFE02460B463046394600F0F5FC0F46064601F03FF9814600F03CFE02460B463046394600F0E8FC002C06460F4640F3EE80681E50
:402F400010AB53F82030C4F1180243FA02F101FA02F29B1AC4F1170810AA42F82030894443FA08F8B8F1000F3DDD002D09F1010940F3D382002214460FA911E0ABAAAA2A5D
:402F8000644500000000703E0000704100002040C3F180700BB108600124013295420DDD51F8043F002CF3D0C3F1FF13013203F57F4395420B604FF00104F1DC089B002B79
:402FC0000DDD012B00F0B180022B08D16A1E10AB53F8223010A9C3F3150341F82230B8F1020F00F08180002200233046394601F0A5F8002800F05B82099B05F1FF3B5B45C6
:4030000010DC05F1804310AA013B0F9802EB8303002253F80419834242EA0102F9D1002A40F0B180099B10AA013B52F82330002B40F071820E9A012352F8041901330029F3
:40304000FAD0E9186A1C8A420C914BDC0D990B985118DB0001F180410593A79B05440139E80003EB810A24ABD20003EB000B74AB13440193A2F10803069007934FF00009B7
:403080005AF8040F00F08CFD029BEBE80201002B4FF000064FF000071BDB069B03EB0904079B09EB030824AB1C449844049BA3F10805F5E9022374E8020100F0D7FD02461D
:4030C0000B463046394600F01FFC444506460F46EFD1019B09F10809E3E802670193059B9945CDD10C9DCCE632463B460020B04900F008FC06460F46002C3FF474AF089AE4
:403100000020AB4900F080FB02460B463046394600F0F8FB06460F4665E710D16B1E10AA52F823304FEAE3581CE76A1E10AB53F8223010A9C3F3160341F822304FE700222F
:403140009C4B01F019F858B980464CE700260027EAE90267DA4509F101097FF45EAE84E6002D09F10109C8BF4FF002083FF702AF32463B4600208E4900F0C4FB4FF00208F7
:4031800006460F462FE7089A10AB53F82B30183ACDF81490CDF8048008926BB90BF18043013B10A901EB830353F804190BF1FF3B183A0029F8D00892089A00207C4900F07B
:4031C00023FBBBF1000F04460D46C0F2B6814FEACB030DF5E87810AA02EB8B0608EB03090493043609F1080756F8040D00F0D8FC22462B4600F03AFD002267E902016E4BA5
:403200002046294600F032FDB84504460D46EBD14B46CDF818B09B460DF5987ACDF808A0DDF824A04FF00009BAF1000FC0F226815DA3D3E90023DFF884815D460026002725
:40324000002403E0A14510DBF8E90223F5E8020100F00CFD02460B463046394600F054FB0134A24506460F46ECDA029BABF1080B03EBC903C3E9006772AB5B4509F101096D
:40328000D2D1A69BDDF818B0DDF808A0032B00F28380DFE813F0D100950095000400BBF1000F40F35481049BCDF808B053449846D3E90067D34658E9029A32463B46484630
:4032C000514600F021FB04460D4602460B464846514600F017FB32463B4600F015FBC8E9000168E90245C34526462F46E3D1DA46DDF808B0BBF1010F40F32981049B0DF507
:403300009C7B53449846D3E90067994659E902343046CDE902341A463946234600F0F4FA04460D4602460B46DDE9020100F0EAFA32463B4600F0E8FAC9E9000169E9024515
:40334000CB4526462F46E1D100231D4608F1080850AC184678E90223294600F0D5FA444503460D46F5D1019A002A00F0D880DAF80440DAF80C200A9FDAF80010DAF808009C
:4033800005F1004504F1004402F100427D613B617C60FA603960B860059B03F007000DF51D7DBDE8F08F00BF00000040FB21F93F0000F03F0000E03F0000703E784500009D
:4033C00000242146049D0835554475E90223204600F09AFA55450446F7D1019B002B50D00A9F01F100450B46DAE9000187E83000224600F087FABBF1000F03460D460DDD1D
:4034000001241846FAE90223294600F07DFA0134A34503460D46F4DA019A0AB105F10045184629460A9BC3E90201059B03F007000DF51D7DBDE8F08F00231C46049A08323B
:40344000924418467AE90223214600F05DFA0BF1FF3BBBF1FF3F03460C46F2D1019A0AB104F10044184621460A9BC3E90001059B03F007000DF51D7DBDE8F08F0026002717
:40348000F3E626460F4622460A9C0B46DAE90001C4E9006700F036FABBF1000F03460D46AEDC184629460A9BC3E90201BDE7089B30465A423946CDF81490CDF8048000F09F
:4034C000A3F900222C4B06460F4600F055FE002840D00022294B3046394600F0C7FB00F05FFE044600F05CFB0022234B00F0BEFB0B4602463946304600F004FA00F050FE6D
:40350000089B05F1010B1833089310AB43F8250043F82B4050E6012393E500244EE51846DAE90067DAE9022329460A9DC5E90067C5E90401C5E902232EE7A69B032B3FF63C
:403540002BAFDFE803F0151010020DF5987A00231D4608E73046394600F022FE10ABAB4643F8250028E6002421460DF5987A34E700231C4672E700BF000070410000703E22
:403580002DE9F04F21F00046B6F1795F85B00C4690469946054604DA00F002FE002800F085802A4623462846214600F05FFB06460F4602460B462846214600F057FB3EA344
:4035C000D3E9002382468B463046394600F04EFB3BA3D3E9002300F095F932463B4600F045FB39A3D3E9002300F08EF932463B4600F03CFB36A3D3E9002300F083F93246D3
:403600003B4600F033FB34A3D3E9002300F07CF90E9BCDE900019BB30022334B4046494600F024FBDDE90023CDE902015046594600F01CFB02460B46DDE9020100F062F9D3
:4036400032463B4600F012FB42464B4600F05AF923A3D3E9002306460F465046594600F005FB02460B463046394600F04DF902460B462846214600F045F905B0BDE8F08F54
:4036800002460B463046394600F0F0FA14A3D3E9002300F037F952465B4600F0E7FA2A46234600F031F905B0BDE8F08F2846214605B0BDE8F08F00BF7CD5CF5A3AD9E53DFA
:4036C000EB9C2B8AE6E55A3E7DFEB157E31DC73ED561C119A0012A3FA6F810111111813F495555555555C53F0000E03F21F00041704700BF00000000C1F30A522DE9F843AA
:40370000A2F2FF36132E0B4604460D46884607461CDC002E3FDB3A4A864642FA06F901EA0902024317D034A3D3E9002300F0ECF80022002300F02AFD20B1002D40DB28EA78
:403740000905002738462946BDE8F883332E06DDB6F5806F2FD020461946BDE8F883A2F213424FF0FF3929FA02F910EA090FF2D021A3D3E9002300F0C7F80022002300F06C
:4037800005FD0028DED0002D20DB454627EA090738462946D8E718A3D3E9002300F0B4F80022002300F0F2FC0028CBD0002D18DB00273D46C6E702460B4600F0A5F8CCE745
:4037C0004FF4801343FA06F6B044B8E7142E10D00123C6F1340603FA06F6371928BF9844D3E725F00042074B224318BF1D460027A8E705F10108C8E79C7500883CE4377E10
:40380000FFFF0F000000F0BFF8B5C1F30A5604460D460B46174606BB21F00043034325D000222F4B00F022FA2E4A044697420D460B462ADBC1F30A56363E40F2FE723E44D8
:40384000964228DC002E12DD23F0FF4323F4E00343EA065520462946F8BD40F2FF729642EBD102460B4600F04FF8F8BDF8BD16F1350F1DDA4CF250339F420CDC14A1D1E942
:40388000000122462B4600F031F811A3D3E9002300F0ECF9F8BD22460FA1D1E900012B4600F024F80CA3D3E9002300F0DFF9F8BD23F0FF4323F4E003363643EA06552046F4
:4038C00029460022084B00F0D1F9F8BDAFF3008059F3F8C21F6EA5019C7500883CE4377E00005043B03CFFFF0000903C03F0004321F0004242EA0301704700BF81F0004182
:4039000002E000BF83F0004330B54FEA41044FEA430594EA050F08BF90EA020F1FBF54EA000C55EA020C7FEA645C7FEA655C00F0E2804FEA5454D4EB5555B8BF6D420CDDF5
:403940002C4480EA020281EA030382EA000083EA010180EA020281EA0303362D88BF30BD11F0004F4FEA01314FF4801C4CEA113102D0404261EB410113F0004F4FEA0333F2
:403980004CEA133302D0524263EB430394EA050F00F0A780A4F10104D5F1200E0DDB02FA0EFC22FA05F2801841F1000103FA0EF2801843FA05F359410EE0A5F120050EF182
:4039C000200E012A03FA0EFC28BF4CF0020C43FA05F3C01851EBE37101F0004507D54FF0000EDCF1000C7EEB00006EEB0101B1F5801F1BD3B1F5001F0CD349085FEA3000FC
:403A00004FEA3C0C04F101044FEA445212F5800F80F09A80BCF1004F08BF5FEA500C50F1000041EB045141EA050130BD5FEA4C0C404141EB010111F4801FA4F10104E9D18C
:403A400091F0000F04BF01460020B1FA81F308BF2033A3F10B03B3F120020CDA0C3208DD02F1140CC2F10C0201FA0CF021FA02F10CE002F11402D8BFC2F1200C01FA02F1B0
:403A800020FA0CFCDCBF41EA0C019040E41AA2BF01EB0451294330BD6FEA04041F3C1CDA0C340EDC04F11404C4F1200220FA04F001FA02F340EA030021FA04F345EA030118
:403AC00030BDC4F10C04C4F1200220FA02F001FA04F340EA0300294630BD21FA04F0294630BD94F0000F83F4801306BF81F480110134013D4EE77FEA645C18BF7FEA655C11
:403B000029D094EA050F08BF90EA020F05D054EA000C04BF1946104630BD91EA030F1EBF0021002030BD5FEA545C05D14000494128BF41F0004130BD14F580043CBF01F52F
:403B4000801130BD01F0004545F0FE4141F470014FF0000030BD7FEA645C1ABF194610467FEA655C1CBF0B46024650EA013406BF52EA033591EA030F41F4002130BD00BFBF
:403B800090F0000F04BF0021704730B54FF4806404F132044FF000054FF0000150E700BF90F0000F04BF0021704730B54FF4806404F1320410F0004548BF40424FF00001BB
:403BC0003EE700BF42004FEAE2014FEA31014FEA02701FBF12F07F4393F07F4F81F06051704792F0000F14BF93F07F4F704730B54FF4607401F0004521F0004120E700BFEB
:403C000050EA010208BF704730B54FF000050AE050EA010208BF704730B511F0004502D5404261EB41014FF4806404F132045FEA915C3FF4DCAE4FF003025FEADC0C18BF58
:403C400003325FEADC0C18BF033202EBDC02C2F1200300FA03FC20FA02F001FA03FE40EA0E0021FA02F11444C1E600BF70B54FF0FF0C4CF4E06C1CEA11541DBF1CEA13557C
:403C800094EA0C0F95EA0C0F00F0DEF82C4481EA030621EA4C5123EA4C5350EA013518BF52EA033541F4801143F4801338D0A0FB02CE4FF00005E1FB02E506F00042E0FBFB
:403CC00003E54FF00006E1FB03569CF0000F18BF4EF0010EA4F1FF04B6F5007F64F5407404D25FEA4E0E6D4146EB060642EAC62141EA55514FEAC52040EA5E504FEACE2E5F
:403D0000B4F1FD0C88BFBCF5E06F1ED8BEF1004F08BF5FEA500E50F1000041EB045170BD06F0004646EA010140EA020081EA0301B4EB5C04C2BFD4EB0C0541EA045170BD37
:403D400041F480114FF0000E013C00F3AB8014F1360FDEBF002001F0004170BDC4F10004203C35DA0C341BDC04F11404C4F1200500FA05F320FA04F001FA05F240EA02000F
:403D800001F0004221F0004110EBD37021FA04F642EB06015EEA430E08BF20EAD37070BDC4F10C04C4F1200500FA04F320FA05F001FA04F240EA020001F0004110EBD370F1
:403DC00041F100015EEA430E08BF20EAD37070BDC4F1200500FA05F24EEA020E20FA04F301FA05F243EA020321FA04F001F0004121FA04F220EA020000EBD3705EEA430E49
:403E000008BF20EAD37070BD94F0000F0FD101F00046400041EB010111F4801F08BF013CF7D041EA060195F0000F18BF704703F00046520043EB030313F4801F08BF013DFC
:403E4000F7D043EA0603704794EA0C0F0CEA135518BF95EA0C0F0CD050EA410618BF52EA4306D1D181EA030101F000414FF0000070BD50EA410606BF1046194652EA43063E
:403E800019D094EA0C0F02D150EA013613D195EA0C0F05D152EA03361CBF104619460AD181EA030101F0004141F0FE4141F470014FF0000070BD41F0FE4141F4780170BD9A
:403EC00070B54FF0FF0C4CF4E06C1CEA11541DBF1CEA135594EA0C0F95EA0C0F00F0A7F8A4EB050481EA030E52EA03354FEA013100F088804FEA03334FF0805545EA13138D
:403F000043EA12634FEA022245EA111545EA10654FEA00260EF000419D4208BF964244F1FD0404F5407402D25B084FEA3202B61A65EB03055B084FEA32024FF480104FF4D8
:403F4000002CB6EB020E75EB030E22BFB61A754640EA0C005B084FEA3202B6EB020E75EB030E22BFB61A754640EA5C005B084FEA3202B6EB020E75EB030E22BFB61A75460F
:403F800040EA9C005B084FEA3202B6EB020E75EB030E22BFB61A754640EADC0055EA060E18D04FEA051545EA16754FEA06164FEAC30343EA52734FEAC2025FEA1C1CC0D13A
:403FC00011F4801F0BD141EA00014FF000004FF0004CB6E711F4801F04BF01430020B4F1FD0C88BFBCF5E06F3FF6AFAEB5EB030C04BFB6EB020C5FEA500C50F1000041EB29
:40400000045170BD0EF0004E4EEA113114EB5C04C2BFD4EB0C0541EA045170BD41F480114FF0000E013C90E645EA060E8DE60CEA135594EA0C0F08BF95EA0C0F3FF43BAFEA
:4040400094EA0C0F0AD150EA01347FF434AF95EA0C0F7FF425AF104619462CE795EA0C0F06D152EA03353FF4FDAE1046194622E750EA410618BF52EA43067FF4C5AE50EAE0
:4040800041047FF40DAF52EA43057FF4EBAE12E74FF0FF3C06E000BF4FF0010C02E000BF4FF0010C4DF804CD4FEA410C7FEA6C5C4FEA430C18BF7FEA6C5C1BD001B050EA78
:4040C000410C0CBF52EA430C91EA030F02BF90EA020F0020704710F1000F91EA030F58BF994208BF90422CBFD8176FEAE37040F0010070474FEA410C7FEA6C5C02D150EA13
:40410000013C07D14FEA430C7FEA6C5CD6D152EA033CD3D05DF8040B704700BF8446104662468C461946634600E000BF01B5FFF7B7FF002848BF10F1000F01BD4DF808ED38
:40414000FFF7F4FF0CBF012000205DF808FB00BF4DF808EDFFF7EAFF34BF012000205DF808FB00BF4DF808EDFFF7E0FF94BF012000205DF808FB00BF4DF808EDFFF7CEFF18
:4041800094BF012000205DF808FB00BF4DF808EDFFF7C4FF34BF012000205DF808FB00BF4FEA410212F5001215D211D56FF47873B3EB625212D94FEAC12343F0004343EA69
:4041C000505311F0004F23FA02F018BF404270474FF00000704750EA013005D111F0004008BF6FF0004070474FF00000704700BF4A0011D212F5001211D20DD56FF478730A
:40420000B3EB62520ED44FEAC12343F0004343EA505323FA02F070474FF00000704750EA013002D14FF0FF3070474FF000007047014B1868704700BF4881FF1F0E4B70B52B
:404240001E460E4C0025E41AA410A54204D056F8253098470135F8E700F0B0F9084B094C1E46E41AA4100025A54204D056F8253098470135F8E770BDC8450000C845000042
:40428000C8450000D045000010B5431E0A44914204D011F8014B03F8014FF8E710BD03460244934202D003F8011BFAE77047000000000000000000004675657261206465B4
:4042C0002052616E676F000050726573696F6E652052657365740000436F65662043616C63756C61646F73005061726120463A00496E69636961000046696C747261646F01
:4043000000000000202020202020202020202020202020200000000043616C63756C616E646F20436F6566002E2E2E0050726573696F6E65202A000046696C74726F3A2007
:404340003129502E42616A61730000003229502E416C7461203329502E42616E6461000044696769746520756E61206672656300646520342064696769746F7300000000AF
:40438000446967697465204620636F727465000044696769746520462063656E7472616C00000000467265633A000000004F00400C00405100403000F05100401000000058
:4043C0000140001000140140000800400140000A004C01400002005001402000FB21F93FFB2109407CD91240FB2119407A6A1F407CD92240BBFD2540FB2129403A462C40E7
:404400007A6A2F405C4731407CD932409C6B3440BBFD3540DB8F3740FB2139401BB43A403A463C405AD83D407A6A3F404C7E40405C4741406C1042407CD942408CA24340E5
:404440009C6B4440AC344540BBFD4540CBC64640DB8F4740EB584840FB21494083F9A200444E6E00FC291500D1572700DD34F50062DBC0003C999500419043006351FE00BD
:40448000BBDEAB00B761C5003A6E2400D24D42004906E00009EA2E001C92D100EB1DFE0029B11C00E83EA700F535820044BB2E009CE98400B4267000417E5F00D69139002C
:4044C000538339009CF439008B5F840028F9BD00F81F3B00DEFF97000F980500112FEF000A5A8B006D1F6D00CF7E360009CB2700464FB7009E663F002DEA5F00BA27750036
:40450000E5EBC7003D7BF100F739070092528A00FB6BEA001FB15F00085D8D00300356007BFC4600F0AB6B0020BCCF0036F49A00E3A91D005E619100081BE60085996500E5
:40454000A0145F008D40680080D8FF0027734D0006063100CA561500C9A873007BE260006B8CC000020000000300000004000000060000000000000000000040FB21F93F48
:40458000000000002D44743E000000809846F83C0000006051CC783B00000080831BF0390000004020257A38000000802282E336000000001DF3693543000000F8B500BFFE
:4045C000F8BC08BC9E4670474D000000211A0000F8B500BFF8BC08BC9E46704729000000F0450000C880FF1F880000005802000000000000FFFF00007F80000001000000FD
:404600000000E691CC2301004B000000E0D473040000000000000000000000000000000000000000000000000000000000000000B8450000000000000000000000000000A0
:40464000000000000000000000000000000000000000000000000000000000000000000000000000000000000000000000000000E880FF1F000000000000000000000000B4
:4046800000000000000000000000000000000000000000000000000000000000000000000000000000000000000000000000000000000000000000000000000000000000FA
:4046C00000000000000000000000000000000000000000000000000000000000000000000000000000000000000000000000000000000000000000000000000000000000BA
:404700000000000000000000000000000000000000000000000000000000000000000000000000000000000000000000000000000000000000000000000000000000000079
:404740000000000000000000000000000000000000000000000000000000000000000000000000000000000000000000000000000000000000000000000000000000000039
:020000040003F7
:0200000480007A
:4000000003450040024F0040015A004001640040010101400402014001030140020501400207014001090140280A01400B0B0140200C01400F0D0140010F0140021501407E
:400040000117014001190140021B0140094001400441014009420140064301400144014003450140054701400648014003490140094C0140034D0140045001400251014040
:4000800010011101120101100A4B9F018C0DE202B802BE01D804DF0118809080EE08A840E810E810405449FF4AFF4BFF4F0150185A045D095F016040624064406540668020
:4000C00068806A806C806E80C014C9FFCAFFCBFFCD83CE03CF01D018D280DA04DB04DD99DF01E040E240E440E540E680E880EA80EC80EE8042804680478048017401778046
:400100009A809F80AF80D091D20822012E01300136013E01401445EC4602480749FF4AFF4BFF4D834E034F015018540158045A045B045C095D995F0160406240644065409F
:40014000668068806A806C806E80168017801E801F80468047804D044F0156805D045E805F01C490D090D6D0E202EC10EE08E280E280EC10EE0832043320361037013D8036
:400180008701CCF0CE20E2409608A540A610A72011025B049608A540A720AE10C410D640EE109608A540A720AB04B501EA8086021202A602C40230209010B410CC08E808EE
:4001C00025508A049608A540A720C820AF20B510EE101C021F80381088019010A420C601CE08E201AF80B420EC08010102140D010F0100FF10020000000F0F00000000006A
:40020000007F7F0000000000000B0B0000008000070700000000000000000000000002003400180100000000000000000000000000000000000000000000000000000000CD
:40024000000000000000000000000000000000000000000000000000000000000000000000000000000000000000000000000000000000000000000000000000000000007E
:40028000000000000000000000000000000000000000000000000000000000000000000000000000000000000000000000000000000000000000000000000000000000003E
:4002C00000000000000000000000000000000000000000000000000000000000000000000000000000000000000000000000000000000000000000000000000000000000FE
:4003000000000000000000000000000000000000000000000000000000000000000000000000000000000000000000000000000000000000000000000000000000000000BD
:0200000490006A
:0400000000004005B7
:0200000490105A
:04000000BC90ACAF55
:0200000490303A
:02000000E91CF9
:0200000490402A
:4000000000000000000000000000000000000000000000000000000000000000000000000000000000000000000000000000000000000000000000000000000000000000C0
:400040000000000000000000000000000000000000000000000000000000000000000000000000000000000000000000000000000000000000000000000000000000000080
:400080000000000000000000000000000000000000000000000000000000000000000000000000000000000000000000000000000000000000000000000000000000000040
:4000C0000000000000000000000000000000000000000000000000000000000000000000000000000000000000000000000000000000000000000000000000000000000000
:0200000490501A
:0C00000000012E16106900012E32F98557
:00000001FF