:400000000080002011000000C5090000C509000008B5044B1A6803F53F5302331A6000F0D9FC00BFFA46004010B5054C237833B9044B13B10448AFF300800123237010BD06
:400040004081FF1F00000000EC140000084B10B51BB108490848AFF300800848036803B910BD074B002BFBD0BDE81040184700BF000000004481FF1FEC140000C880FF1F12
:400080000000000008B5094B1B78DBB2012B03D10022064B1A7002E00122044B1A70034B187800F089FE00F021FF08BD5C81FF1F38B5074B1B7813F0FF0F0BD100F0A8FDBB
:4000C000002000F0B1FD00F0C1FDC0B238E300BF5C81FF1FAF4CB4F86230A4F86430B4F86030A4F86230B4F85E30A4F86030B4F85C30A4F85E30B4F85A30A4F85C30B4F8A8
:400100005830A4F85A30B4F85630A4F85830B4F85430A4F85630B4F85230A4F85430B4F85030A4F85230B4F84E30A4F85030B4F84C30A4F84E30B4F84A30A4F84C30B4F85F
:400140004830A4F84A30B4F84630A4F84830B4F84430A4F84630B4F84230A4F84430B4F84030A4F84230E38FA4F84030A38FE387638FA387238F6387E38E2387A38EE386AA
:40018000638EA386238E6386E38D2386A38DE385638DA385238D6385E38C2385A38CE384638CA384238C6384E38B2384A38BE383638BA383238B6383E38A2383A38AE382DB
:4001C000638AA382238A6382E3892382A389E3816389A38123896381E3882381A388E3806388A3802388638000F012FD002000F01BFD00F02BFD80B2208000F073FF6649BF
:4002000000F0C4FF0546608800F06CFF634900F0BDFF0146284600F0B1FE0546A08800F061FF5F4900F0B2FF0146284600F0A6FE0546E08800F056FF5A4900F0A7FF014604
:40024000284600F09BFE0546208900F04BFF554900F09CFF0146284600F090FE0546608900F040FF504900F091FF0146284600F085FE0546A08900F035FF4C4900F086FFB7
:400280000146284600F07AFE0546E08900F02AFF474900F07BFF0146284600F06FFE0546208A00F01FFF434900F070FF0146284600F064FE0546608A00F014FF3E4900F0A4
:4002C00065FF0146284600F059FE0546A08A00F009FF3A4900F05AFF0146284600F04EFE0546E08A00F0FEFE354900F04FFF0146284600F043FE0546208B00F0F3FE3149E0
:4003000000F044FF0146284600F038FE0546608B00F0E8FE2C4900F039FF0146284600F02DFE0546A08B00F0DDFE284900F02EFF0146284600F022FE0546E08B00F0D2FE2C
:40034000234900F023FF0146284600F017FE0546208C00F0C7FE1F4900F018FF0146284600F00CFE0546608C00F0BCFE1A4900F00DFF0146284600F001FE0546A08C00F030
:40038000B1FE164900F002FF0146284600F0F6FD26E000BF6081FF1F17B7D13A6C09F93A99BB163BC3642A3B6F12033B52491D3AE02D10BB3B70CEBBCA5441BC508D97BC28
:4003C000CE88D2BC948705BDE3A51BBDC28627BD9D1125BD97FF10BDABCFD5BCCDCC4CBC0546E08C00F07EFEB84900F0CFFE0146284600F0C3FD0546208D00F073FEB44975
:4004000000F0C4FE0146284600F0B8FD0546608D00F068FEAF4900F0B9FE0146284600F0ADFD0546A08D00F05DFEAB4900F0AEFE0146284600F0A2FD0546E08D00F052FEA5
:40044000A64900F0A3FE0146284600F097FD0546208E00F047FEA24900F098FE0146284600F08CFD0546608E00F03CFE9D4900F08DFE0146284600F081FD0546A08E00F0A6
:4004800031FE974900F082FE0146284600F076FD0546E08E00F026FE904900F077FE0146284600F06BFD0546208F00F01BFE8A4900F06CFE0146284600F060FD0546608F21
:4004C00000F010FE834900F061FE0146284600F055FD0546A08F00F005FE7D4900F056FE0146284600F04AFD0546E08F00F0FAFD764900F04BFE0146284600F03FFD0546C4
:40050000B4F8400000F0EEFD774900F03FFE0146284600F033FD0546B4F8420000F0E2FD724900F033FE0146284600F027FD0546B4F8440000F0D6FD6D4900F027FE014675
:40054000284600F01BFD0546B4F8460000F0CAFD684900F01BFE0146284600F00FFD0546B4F8480000F0BEFD634900F00FFE0146284600F003FD0546B4F84A0000F0B2FD8E
:400580005E4900F003FE0146284600F0F7FC0546B4F84C0000F0A6FD594900F0F7FD0146284600F0EBFC0546B4F84E0000F09AFD544900F0EBFD0146284600F0DFFC054617
:4005C000B4F8500000F08EFD4F4900F0DFFD0146284600F0D3FC0546B4F8520000F082FD4A4900F0D3FD0146284600F0C7FC0546B4F8540000F076FD454900F0C7FD014602
:40060000284600F0BBFC0546B4F8560000F06AFD404900F0BBFD0146284600F0AFFC0546B4F8580000F05EFD3B4900F0AFFD0146284600F0A3FC0546B4F85A0000F052FDF2
:40064000364900F0A3FD0146284600F097FC0546B4F85C0000F046FD314900F097FD0146284600F08BFC0546B4F85E0000F03AFD2B4900F08BFD0146284600F07FFC0546B0
:40068000B4F8600000F02EFD264900F07FFD0146284600F073FC0546B4F8620000F022FD214900F073FD0146284600F067FC04461E4BB3F8640000F015FD1D4900F066FD6D
:4006C0000146204600F05AFC34E000BFBC74933B1283C03C0E4F2F3DFE65773DE3C7983DE86AAB3DA1F8B13DCDCC4CBCABCFD5BC97FF10BD9D1125BDC28627BDE3A51BBD5A
:40070000948705BDCE88D2BC508D97BCCA5441BC3B70CEBBE02D10BB52491D3A6F12033BC3642A3B99BB163B6C09F93A6081FF1F17B7D13A044900F021FC00F077FEC0B20E
:4007400000F0AEFA38BD00BF0000D84208B562B600F050FA00F0DCFA00F0BAFB044800F051FB002000F028FB024800F0E1FBFEE7B100000085000000F0B40022174611E099
:4007800050F82760F3B226F0FF0608E001EB420511F812406D78A5550132013BDBB2002BF4D101370F2FEBD9F0BC704708B50A46002100F092FE08BDF8B5194B1B78DBB228
:4007C000184E3478E4B2184F3D78EDB203F00701164A11701B090132137044F00303337045F003033B708022114B1A70022220331A7040230F4A137002321370202302F267
:400800008D121370082190321170033213700A2000F09CFA3D7034704422074B1A70F8BDCF010049F8460040F94600406E5800401D510040095900407658004008B500F053
:4008400041FE08BD10B541F62D521D4B1A80182202331A7004221B491B48FFF7EFFF02211A4B197008224FF040231A70184B1B78DBB2184A13700622174B1A70A3F5FE7341
:4008800000221A8007201870144802704824023004701A70033B197004220A331A70104A137843F001031370013A137843F001031370013A137843F08003137010BD00BF05
:4008C00080400040A000004800410040004300400D010049A14600400042004006400040A243004038B572B66122284B1A70FFF7A9FF274A137843F00403137000240CE065
:40090000244D630019194A0011462A44084691882858FFF74BFF0134E4B2092CF0D91E494FF09040FFF728FF1C4A137843F0020313701032137843F002031370184C2378EC
:4009400043F040032370A2F58632513A137843F010031370082213491348FFF76FFF0A2212491348FFF76AFF082212491248FFF765FF124A137843F008031370FFF71CFFC8
:400980000E2221460E48FFF759FF38BD00480040E8460040F01400004000004803500140A043004084000048125100408C0000482051004098000048325100402243004092
:4009C000B043004008B500F051FD03680C2B00D1FEE7FEE708B5104E104D16E029686B68AC68002204E051F8040B43F8040B0432A242F8D1E868002203E0002143F8041B4B
:400A000004328242F9D11035013E002EE6D100F033FDFFF79BFEFEE7010000005415000008B5104A104B1A60104A136843F40073136000230AE0032B03D80D4A52F82310C3
:400A400000E00C490C4A42F8231001332F2BF2D90A4B1A780A4B1A70074A0A4B1A60FFF741FF08BD0004FA050CED00E014ED00E000000000C50900000080FF1FBC760040A9
:400A8000C080FF1F08ED00E008B50A280FD00C2802D0082806D102E04FF4805209E04FF4807206E0002000F04FF9002201E04FF480620021094B198042F2107303FB02F3F5
:400AC00003F6C413064A82FB0302DB17C3EBE223044A1360044B198008BD00BFCE81FF1FAD8BDB68C881FF1FCC81FF1F38B500F037FA04461E4A137843F002031370103280
:400B0000137843F0020313701A3A137843F0010313701032137843F00103137002F5AA521A32137843F0030313701822114B1A70013B1A7842F040021A701A7802F0FC025B
:400B40001A70CE22053B1A700225A3F59753123B1D70094A137843F0080313700A2000F0F5F8064B1D60204600F0FEF938BD00BFAB4300400E5900402F5B004080E200E058
:400B800010B504460A280DD00C2802D0082804D101E0C22207E0422205E0002000F0D4F8C22200E08222034B1A702046FFF76CFF10BD00BF0A59004008B5102000F0BAF876
:400BC0000721012000F0E0F80749012000F0C8F8064A137843F0060313700820FFF7D0FF0022034B1A8008BD650C000009590040D081FF1F08B5054B1B7823B9FFF7DCFF9E
:400C00000122024B1A70FFF771FF08BD5D81FF1F044B1A7802F0FB021A701A7842F001021A7070470859004010B5074B1B7813F0010401D10028F8D024B1012000F086F8B8
:400C4000014B1B78204610BD09590040034B188880B2034B1B88C01A00B27047A25B0040CC81FF1F704700BF054A137843F0080313701032137843F008031370704700BFAF
:400C8000A8430040054B1A7802F0FD021A701A7800F0020010431870704700BF2C580040014B1870704700BF835B0040064B1B78C3F3810303F19243063393F83831DBB20A
:400CC000024A1370704700BF2C5800400B46004008B5064B1A7802F0F3021A701A7800F00C0010431870FFF7E1FF08BD2C58004008B50023054A1370013213700420FFF7FF
:400D0000E7FF0220FFF7BEFF08BD00BF2C58004008B5074B1B7823B9FFF7EAFF0122044B1A70FFF7A1FF6420FFF7BAFF08BD00BF5E81FF1F034B1A7800F0F800104318706A
:400D4000704700BF0241004001BE704708B5034B1B7A00FB03F000F0FBF808BDCC80FF1F70B504460E46074B1D681F2802D90020FFF7EAFF04F01F04103455F8240045F8A0
:400D8000246070BD08ED00E038B504460D46072902D90020FFF7D8FF1F2C02D90020FFF7D3FF04F01F0000F1604000F564406D01EDB2057038BD00BF044A137803F0FD03DE
:400DC000400000F0020018431070704720510040014B1B681864704708ED00E04001C0B2014B1870704700BF00E400E00122014B1A60704700E100E00122014B1A607047E5
:400E000080E100E010B50446FFF7F6FF2046FFF7DFFF0720FFF7E2FFFFF7E8FF10BD00BF084A137843F0010313701032137843F00103137002F64D32137843F001031370FC
:400E4000704700BFA3430040014B1870704700BF034F0040014B1880704700BF044F0040014B1880704700BF064F004008B5154A137803F0010313700232137803F0FC034C
:400E80001370114B1A7802F0CF021A701A7842F030021A701A7802F0F0021A701A7842F00F021A70094A137843F0010313702720FFF7D0FF2720FFF7D3FF0020FFF7C4FF09
:400EC00008BD00BF004F00400B4F0040014F004008B5054B1B7823B9FFF7C8FF0122024B1A70FFF79DFF08BD5F81FF1F024B1878C0F38000704700BF82450040014B1B68D1
:400F00009865704708ED00E04001C0B2014B1870704700BF06E400E04022014B1A60704700E100E04022014B1A60704780E100E010B50446FFF7F6FF2046FFF7DFFF072046
:400F4000FFF7E2FFFFF7E8FF10BD00BF000000000230800803D000BF01380046FCD17047EFF3108072B6704780F31088704700BF80F0004002E000BF81F0004142001FBFED
:400F80005FEA410392EA030F7FEA226C7FEA236C6AD04FEA1262D2EB1363C1BFD218414048404140B8BF5B42192B88BF704710F0004F40F4000020F07F4018BF404211F017
:400FC000004F41F4000121F07F4118BF494292EA030F3FD0A2F1010241FA03FC10EB0C00C3F1200301FA03F100F0004302D5494260EB4000B0F5000F13D3B0F1807F06D3CC
:4010000040084FEA310102F10102FE2A51D2B1F1004F40EBC25008BF20F0010040EA03007047490040EB000010F4000FA2F10102EDD1B0FA80FCACF1080CB2EB0C0200FA7B
:401040000CF0AABF00EBC25052421843BCBFD0401843704792F0000F81F4000106BF80F400000132013BB5E74FEA41037FEA226C18BF7FEA236C21D092EA030F04D092F01F
:40108000000F08BF0846704790EA010F1CBF0020704712F07F4F04D1400028BF40F00040704712F100723CBF00F50000704700F0004343F0FE4040F4000070477FEA22628E
:4010C00016BF08467FEA23630146420206BF5FEA412390EA010F40F4800070474FF0000304E000BF10F0004348BF40425FEA000C08BF704743F0964301464FF000001CE0DA
:4011000050EA010208BF70474FF000030AE000BF50EA010208BF704711F0004302D5404261EB41015FEA010C02BF84460146002043F0B64308BFA3F18053A3F50003BCFA30
:401140008CF2083AA3EBC25310DB01FA02FC634400FA02FCC2F12002BCF1004F20FA02F243EB020008BF20F00100704702F1200201FA02FCC2F1200250EA4C0021FA02F273
:4011800043EB020008BF20EADC7070474FF0FF0C1CEAD0521EBF1CEAD15392EA0C0F93EA0C0F6FD01A4480EA010C400218BF5FEA41211ED04FF0006343EA501043EA5111FF
:4011C000A0FB01310CF00040B1F5000F3EBF490041EAD3715B0040EA010062F17F02FD2A1DD8B3F1004F40EBC25008BF20F00100704790F0000F0CF0004C08BF49024CEA28
:40120000502040EA51207F3AC2BFD2F1FF0340EAC250704740F400004FF00003013A5DDC12F1190FDCBF00F000407047C2F10002410021FA02F1C2F1200200FA02FC5FEA00
:40124000310040F1000053EA4C0308BF20EADC70704792F0000F00F0004C02BF400010F4000F013AF9D040EA0C0093F0000F01F0004C02BF490011F4000F013BF9D041EA74
:401280000C018FE70CEAD15392EA0C0F18BF93EA0C0F0AD030F0004C18BF31F0004CD8D180EA010000F00040704790F0000F17BF90F0004F084691F0000F91F0004F14D040
:4012C00092EA0C0F01D142020FD193EA0C0F03D14B0218BF084608D180EA010000F0004040F0FE4040F40000704740F0FE4040F4400070474FF0FF0C1CEAD0521EBF1CEAC8
:40130000D15392EA0C0F93EA0C0F69D0A2EB030280EA010C49024FEA402037D04FF0805343EA111143EA10130CF000408B4238BF5B0042F17D024FF4000C8B4224BF5B1AFB
:4013400040EA0C00B3EB510F24BFA3EB510340EA5C00B3EB910F24BFA3EB910340EA9C00B3EBD10F24BFA3EBD10340EADC001B0118BF5FEA1C1CE0D1FD2A3FF650AF8B42CF
:4013800040EBC25008BF20F0010070470CF0004C4CEA50207F32C2BFD2F1FF0340EAC250704740F400004FF00003013A37E792F0000F00F0004C02BF400010F4000F013A9E
:4013C000F9D040EA0C0093F0000F01F0004C02BF490011F4000F013BF9D041EA0C0195E70CEAD15392EA0C0F08D142027FF47DAF93EA0C0F7FF470AF084676E793EA0C0F6E
:4014000004D14B023FF44CAF08466EE730F0004C18BF31F0004CCAD130F000427FF45CAF31F000437FF43CAF5FE700BF42000ED2B2F1FE4F0BD34FF09E03B3EB126209D408
:401440004FEA002343F0004323FA02F070474FF00000704712F1610F01D1420202D14FF0FF3070474FF00000704700BF014B1868704700BF3C81FF1F0E4B70B51E460E4C4F
:401480000025E41AA410A54204D056F8253098470135F8E700F04CF8084B094C1E46E41AA4100025A54204D056F8253098470135F8E770BD3C1500003C1500003C1500007A
:4014C0004415000010B5431E0A44914204D011F8014B03F8014FF8E710BD03460244934202D003F8011BFAE77047000000000000004F00400C00005100401000405100403A
:401500003000C05100401000F0510040100000000140001000140140000800400140000A004C0140000200500140200043000000F8B500BFF8BC08BC9E4670474D00000001
:40154000210A0000F8B500BFF8BC08BC9E4670472900000068150000C880FF1F780000009800000000000000000000000000E691CC2301004B000000E0D4730400000000C8
:40158000000000000000000000000000000000000000000000000000000000002C1500000000000000000000000000000000000000000000000000000000000000000000EA
:4015C00000000000000000000000000000000000000000000000000000000000DC80FF1F000000000000000000000000000000000000000000000000000000000000000071
:4016000000000000000000000000000000000000000000000000000000000000000000000000000000000000000000000000000000000000000000000000000000000000AA
:40164000000000000000000000000000000000000000000000000000000000000000000000000000000000000000000000000000000000000000000000000000000000006A
:40168000000000000000000000000000000000000000000000000000000000000000000000000000000000000000000000000000000000000000000000000000000000002A
:4016C00000000000000000000000000000000000000000000000000000000000000000000000000000000000000000000000000000000000000000000000000000000000EA
:020000040003F7
:0200000480007A
:4000000001450040014F00400107014001090140040A0140010B014001170140011901400340014002410140064201400343014003480140034C014001500140015101406D
:4000400012020A4BEE08AF20B820BE10D804DF011F20E608E60830203610CC30A420A61010206302A420A610C410D640A610AF01EE108610A610E6101F208720C601021467
:40008000000E0000000B0B000000800004000006020000000000000000000000000002003D0018010000000000000000000000000000000000000000000000000000000038
:4000C0000000000000000000000000000000000000000000000000000000000000000000000000000000000000000000000000000000000000000000000000000000000000
:4001000000000000000000000000000000000000000000000000000000000000000000000000000000000000000000000000000000000000000000000000000000000000BF
:40014000000000000000000000000000000000000000000000000000000000000000000000000000000000000000000000000000000000000000000000000000000000007F
:40018000000000000000000000000000000000000000000000000000000000000000000000000000000000000000000000000000000000000000000000000000000000003F
:0200000490006A
:0400000000004005B7
:0200000490105A
:04000000BC90ACAF55
:0200000490303A
:02000000A99EB7
:0200000490402A
:4000000000000000000000000000000000000000000000000000000000000000000000000000000000000000000000000000000000000000000000000000000000000000C0
:400040000000000000000000000000000000000000000000000000000000000000000000000000000000000000000000000000000000000000000000000000000000000080
:400080000000000000000000000000000000000000000000000000000000000000000000000000000000000000000000000000000000000000000000000000000000000040
:4000C0000000000000000000000000000000000000000000000000000000000000000000000000000000000000000000000000000000000000000000000000000000000000
:0200000490501A
:0C00000000012E16106900012E1EBA0728
:00000001FF