:4000000000800020110000003D1700003D17000008B5044B1A6803F53F5302331A6001F095FB00BFFA46004010B5054C237833B9044B13B10448AFF300800123237010BD3E
:400040004081FF1F000000000C250000084B10B51BB108490848AFF300800848036803B910BD074B002BFBD0BDE81040184700BF000000004481FF1F0C250000C880FF1FB0
:400080000000000008B51A4B1B78DBB2032B03D10022174B1A7004E0154A13780133DBB21370134B1B78DBB2032B1ED8DFE803F002091017012001F0C1FD0E4801F0B0FD8A
:4000C00013E0012001F0BAFD0B4801F0A9FD0CE0012001F0B3FD094801F0A2FD05E0012001F0ACFD064801F09BFD01F011FF08BD5C81FF1F102500001C25000024250000D4
:400100002C25000038B5074B1B7813F0FF0F0BD101F03AFC002001F043FC01F053FCC0B201F0B4B95C81FF1FAE4B1B78DBB2012B40F03883AC4CB4F86230A4F86430B4F8EB
:400140006030A4F86230B4F85E30A4F86030B4F85C30A4F85E30B4F85A30A4F85C30B4F85830A4F85A30B4F85630A4F85830B4F85430A4F85630B4F85230A4F85430B4F89F
:400180005030A4F85230B4F84E30A4F85030B4F84C30A4F84E30B4F84A30A4F84C30B4F84830A4F84A30B4F84630A4F84830B4F84430A4F84630B4F84230A4F84430B4F85F
:4001C0004030A4F84230E38FA4F84030A38FE387638FA387238F6387E38E2387A38EE386638EA386238E6386E38D2386A38DE385638DA385238D6385E38C2385A38CE38438
:40020000638CA384238C6384E38B2384A38BE383638BA383238B6383E38A2383A38AE382638AA382238A6382E3892382A389E3816389A38123896381E3882381A388E3809A
:400240006388A3802388638001F09EFB002001F0A7FB01F0B7FB80B2208001F053FF634901F0A4FF0546608801F04CFF604901F09DFF0146284601F091FE0546A08801F06F
:4002800041FF5C4901F092FF0146284601F086FE0546E08801F036FF574901F087FF0146284601F07BFE0546208901F02BFF524901F07CFF0146284601F070FE0546608940
:4002C00001F020FF4D4901F071FF0146284601F065FE0546A08901F015FF494901F066FF0146284601F05AFE0546E08901F00AFF444901F05BFF0146284601F04FFE0546CB
:40030000208A01F0FFFE404901F050FF0146284601F044FE0546608A01F0F4FE3B4901F045FF0146284601F039FE0546A08A01F0E9FE374901F03AFF0146284601F02EFEFD
:400340000546E08A01F0DEFE324901F02FFF0146284601F023FE0546208B01F0D3FE2E4901F024FF0146284601F018FE0546608B01F0C8FE294901F019FF0146284601F08D
:400380000DFE0546A08B01F0BDFE254901F00EFF0146284601F002FE0546E08B01F0B2FE204901F003FF0146284601F0F7FD0546208C01F0A7FE1C4901F0F8FE0146284623
:4003C00001F0ECFD0546608C01F09CFE174901F0EDFE0146284601F0E1FD0546A08C01F091FE25E05C81FF1F6481FF1F17B7D13A6C09F93A99BB163BC3642A3B6F12033B36
:4004000052491D3AE02D10BB3B70CEBBCA5441BC508D97BCCE88D2BC948705BDE3A51BBDC28627BD9D1125BD97FF10BDABCFD5BCB74901F0BBFE0146284601F0AFFD0546E1
:40044000E08C01F05FFEB34901F0B0FE0146284601F0A4FD0546208D01F054FEAE4901F0A5FE0146284601F099FD0546608D01F049FEAA4901F09AFE0146284601F08EFDC1
:400480000546A08D01F03EFEA54901F08FFE0146284601F083FD0546E08D01F033FEA14901F084FE0146284601F078FD0546208E01F028FE9C4901F079FE0146284601F0B0
:4004C0006DFD0546608E01F01DFE984901F06EFE0146284601F062FD0546A08E01F012FE914901F063FE0146284601F057FD0546E08E01F007FE8B4901F058FE01462846EB
:4005000001F04CFD0546208F01F0FCFD844901F04DFE0146284601F041FD0546608F01F0F1FD7E4901F042FE0146284601F036FD0546A08F01F0E6FD774901F037FE01464B
:40054000284601F02BFD0546E08F01F0DBFD714901F02CFE0146284601F020FD0546B4F8400001F0CFFD6A4901F020FE0146284601F014FD0546B4F8420001F0C3FD6C49CD
:4005800001F014FE0146284601F008FD0546B4F8440001F0B7FD674901F008FE0146284601F0FCFC0546B4F8460001F0ABFD624901F0FCFD0146284601F0F0FC0546B4F874
:4005C000480001F09FFD5D4901F0F0FD0146284601F0E4FC0546B4F84A0001F093FD584901F0E4FD0146284601F0D8FC0546B4F84C0001F087FD534901F0D8FD014628469E
:4006000001F0CCFC0546B4F84E0001F07BFD4E4901F0CCFD0146284601F0C0FC0546B4F8500001F06FFD494901F0C0FD0146284601F0B4FC0546B4F8520001F063FD44493F
:4006400001F0B4FD0146284601F0A8FC0546B4F8540001F057FD3F4901F0A8FD0146284601F09CFC0546B4F8560001F04BFD3A4901F09CFD0146284601F090FC0546B4F8E6
:40068000580001F03FFD354901F090FD0146284601F084FC0546B4F85A0001F033FD304901F084FD0146284601F078FC0546B4F85C0001F027FD2B4901F078FD0146284625
:4006C00001F06CFC0546B4F85E0001F01BFD254901F06CFD0146284601F060FC0546B4F8600001F00FFD204901F060FD0146284601F054FC0546B4F8620001F003FD1B49CA
:4007000001F054FD0146284601F048FC04462FE0CDCC4CBCBC74933B1283C03C0E4F2F3DFE65773DE3C7983DE86AAB3DA1F8B13DABCFD5BC97FF10BD9D1125BDC28627BDBA
:40074000E3A51BBD948705BDCE88D2BC508D97BCCA5441BC3B70CEBBE02D10BB52491D3A6F12033BC3642A3B99BB163B6C09F93A094BB3F8640001F0C5FC084901F016FD0D
:400780000146204601F00AFC054901F007FC01F05DFEC0B200F07ABE6481FF1F17B7D13A0000D842AE4B1B78DBB2022B40F03C83AC4CB4F86230A4F86430B4F86030A4F804
:4007C0006230B4F85E30A4F86030B4F85C30A4F85E30B4F85A30A4F85C30B4F85830A4F85A30B4F85630A4F85830B4F85430A4F85630B4F85230A4F85430B4F85030A4F829
:400800005230B4F84E30A4F85030B4F84C30A4F84E30B4F84A30A4F84C30B4F84830A4F84A30B4F84630A4F84830B4F84430A4F84630B4F84230A4F84430B4F84030A4F8E8
:400840004230E38FA4F84030A38FE387638FA387238F6387E38E2387A38EE386638EA386238E6386E38D2386A38DE385638DA385238D6385E38C2385A38CE384638CA384A7
:40088000238C6384E38B2384A38BE383638BA383238B6383E38A2383A38AE382638AA382238A6382E3892382A389E3816389A38123896381E3882381A388E3806388A3801C
:4008C0002388638001F060F8002001F069F801F079F880B2208001F015FC634901F066FC0546608801F00EFC604901F05FFC0146284601F053FB0546A08801F003FC5C495B
:4009000001F054FC0146284601F048FB0546E08801F0F8FB574901F049FC0146284601F03DFB0546208901F0EDFB534901F03EFC0146284601F032FB0546608901F0E2FBD9
:400940004E4901F033FC0146284601F027FB0546A08901F0D7FB4A4901F028FC0146284601F01CFB0546E08901F0CCFB454901F01DFC0146284601F011FB0546208A01F0C0
:40098000C1FB414901F012FC0146284601F006FB0546608A01F0B6FB3C4901F007FC0146284601F0FBFA0546A08A01F0ABFB384901F0FCFB0146284601F0F0FA0546E08AA6
:4009C00001F0A0FB334901F0F1FB0146284601F0E5FA0546208B01F095FB2F4901F0E6FB0146284601F0DAFA0546608B01F08AFB2A4901F0DBFB0146284601F0CFFA0546B2
:400A0000A08B01F07FFB264901F0D0FB0146284601F0C4FA0546E08B01F074FB214901F0C5FB0146284601F0B9FA0546208C01F069FB1D4901F0BAFB0146284601F0AEFA61
:400A40000546608C01F05EFB184901F0AFFB0146284601F0A3FA0546A08C01F053FB27E05C81FF1F6481FF1F6F1283BA89D2DEBA99BB163BFAEDEBBA17B7D1B9E02D103B69
:400A8000C364AA3B4260E53B17B7D13B4260653B52499D3917B751B927A0893BE3A51BBD2E90A03C05A3923CFAEDEB3A8C4AEABCB74901F07BFB0146284601F06FFA0546BF
:400AC000E08C01F01FFBB34901F070FB0146284601F064FA0546208D01F014FBAE4901F065FB0146284601F059FA0546608D01F009FBAA4901F05AFB0146284601F04EFA96
:400B00000546A08D01F0FEFAA54901F04FFB0146284601F043FA0546E08D01F0F3FAA14901F044FB0146284601F038FA0546208E01F0E8FA9C4901F039FB0146284601F044
:400B40002DFA0546608E01F0DDFA984901F02EFB0146284601F022FA0546A08E01F0D2FA914901F023FB0146284601F017FA0546E08E01F0C7FA8B4901F018FB01462846C2
:400B800001F00CFA0546208F01F0BCFA844901F00DFB0146284601F001FA0546608F01F0B1FA7E4901F002FB0146284601F0F6F90546A08F01F0A6FA774901F0F7FA014622
:400BC000284601F0EBF90546E08F01F09BFA714901F0ECFA0146284601F0E0F90546B4F8400001F08FFA6A4901F0E0FA0146284601F0D4F90546B4F8420001F083FA6C4964
:400C000001F0D4FA0146284601F0C8F90546B4F8440001F077FA674901F0C8FA0146284601F0BCF90546B4F8460001F06BFA624901F0BCFA0146284601F0B0F90546B4F808
:400C4000480001F05FFA5D4901F0B0FA0146284601F0A4F90546B4F84A0001F053FA584901F0A4FA0146284601F098F90546B4F84C0001F047FA534901F098FA014628462F
:400C800001F08CF90546B4F84E0001F03BFA4E4901F08CFA0146284601F080F90546B4F8500001F02FFA494901F080FA0146284601F074F90546B4F8520001F023FA4449D1
:400CC00001F074FA0146284601F068F90546B4F8540001F017FA3F4901F068FA0146284601F05CF90546B4F8560001F00BFA3A4901F05CFA0146284601F050F90546B4F878
:400D0000580001F0FFF9354901F050FA0146284601F044F90546B4F85A0001F0F3F9304901F044FA0146284601F038F90546B4F85C0001F0E7F92B4901F038FA01462846B9
:400D400001F02CF90546B4F85E0001F0DBF9264901F02CFA0146284601F020F90546B4F8600001F0CFF9214901F020FA0146284601F014F90546B4F8620001F0C3F91C495B
:400D800001F014FA0146284601F008F9044631E0931884BDECC0B9BDED9EBCBD90A078BD17B7D1BADE718A3DFFB2FB3DBC74133E8C4AEABCFAEDEB3A05A3923C2E90A03C4A
:400DC000CDCC4C3C27A0893B17B751B952499D394260653B17B7D13B4260E53BC364AA3BE02D103B17B7D1B9FAEDEBBA27A009BB89D2DEBA094BB3F8640001F083F9084939
:400E000001F0D4F90146204601F0C8F8054901F0C5F801F01BFBC0B238E300BF6481FF1F6F1283BA0000D842AF4CB4F86230A4F86430B4F86030A4F86230B4F85E30A4F8C3
:400E40006030B4F85C30A4F85E30B4F85A30A4F85C30B4F85830A4F85A30B4F85630A4F85830B4F85430A4F85630B4F85230A4F85430B4F85030A4F85230B4F84E30A4F8C2
:400E80005030B4F84C30A4F84E30B4F84A30A4F84C30B4F84830A4F84A30B4F84630A4F84830B4F84430A4F84630B4F84230A4F84430B4F84030A4F84230E38FA4F84030BA
:400EC000A38FE387638FA387238F6387E38E2387A38EE386638EA386238E6386E38D2386A38DE385638DA385238D6385E38C2385A38CE384638CA384238C6384E38B238466
:400F0000A38BE383638BA383238B6383E38A2383A38AE382638AA382238A6382E3892382A389E3816389A38123896381E3882381A388E3806388A3802388638000F024FDA1
:400F4000002000F02DFD00F03DFD80B2208001F0D9F8002101F02AF90546608801F0D2F8624901F023F90146284601F017F80546A08801F0C7F85E4901F018F90146284668
:400F800001F00CF80546E08801F0BCF8594901F00DF90146284601F001F80546208901F0B1F8554901F002F90146284600F0F6FF0546608901F0A6F8504901F0F7F8014677
:400FC000284600F0EBFF0546A08901F09BF84C4901F0ECF80146284600F0E0FF0546E08901F090F8474901F0E1F80146284600F0D5FF0546208A01F085F8434901F0D6F815
:401000000146284600F0CAFF0546608A01F07AF83E4901F0CBF80146284600F0BFFF0546A08A01F06FF83A4901F0C0F80146284600F0B4FF0546E08A01F064F8354901F04A
:40104000B5F80146284600F0A9FF0546208B01F059F8314901F0AAF80146284600F09EFF0546608B01F04EF82C4901F09FF80146284600F093FF0546A08B01F043F828493B
:4010800001F094F80146284600F088FF0546E08B01F038F8234901F089F80146284600F07DFF0546208C01F02DF81F4901F07EF80146284600F072FF0546608C01F022F87D
:4010C0001A4901F073F80146284600F067FF0546A08C01F017F8164901F068F80146284600F05CFF054625E06481FF1F17B7D1B899BB163B6F12033A6F1203BA6F12833A76
:401100003B70CEBB5F294BBB52491D3B426065BBF4FD543C38F8423CAC8BDBBBE3A51BBD7A36ABBC4C3709BD1B2F5D3CF77560BC40A4DF3CE08C00F0E5FFB84901F036F8B2
:401140000146284600F02AFF0546208D00F0DAFFB34901F02BF80146284600F01FFF0546608D00F0CFFFAF4901F020F80146284600F014FF0546A08D00F0C4FFAA4901F04F
:4011800015F80146284600F009FF0546E08D00F0B9FFA64901F00AF80146284600F0FEFE0546208E00F0AEFFA14900F0FFFF0146284600F0F3FE0546608E00F0A3FF9D49DD
:4011C00000F0F4FF0146284600F0E8FE0546A08E00F098FF964900F0E9FF0146284600F0DDFE0546E08E00F08DFF904900F0DEFF0146284600F0D2FE0546208F00F082FF8F
:40120000894900F0D3FF0146284600F0C7FE0546608F00F077FF834900F0C8FF0146284600F0BCFE0546A08F00F06CFF7C4900F0BDFF0146284600F0B1FE0546E08F00F0EA
:4012400061FF764900F0B2FF0146284600F0A6FE0546B4F8400000F055FF754900F0A6FF0146284600F09AFE0546B4F8420000F049FF714900F09AFF0146284600F08EFE75
:401280000546B4F8440000F03DFF6C4900F08EFF0146284600F082FE0546B4F8460000F031FF674900F082FF0146284600F076FE0546B4F8480000F025FF624900F076FF76
:4012C0000146284600F06AFE0546B4F84A0000F019FF5D4900F06AFF0146284600F05EFE0546B4F84C0000F00DFF584900F05EFF0146284600F052FE0546B4F84E0000F041
:4013000001FF534900F052FF0146284600F046FE0546B4F8500000F0F5FE4E4900F046FF0146284600F03AFE0546B4F8520000F0E9FE494900F03AFF0146284600F02EFE68
:401340000546B4F8540000F0DDFE444900F02EFF0146284600F022FE0546B4F8560000F0D1FE3F4900F022FF0146284600F016FE0546B4F8580000F0C5FE3A4900F016FF00
:401380000146284600F00AFE0546B4F85A0000F0B9FE354900F00AFF0146284600F0FEFD0546B4F85C0000F0ADFE304900F0FEFE0146284600F0F2FD0546B4F85E0000F045
:4013C000A1FE2B4900F0F2FE0146284600F0E6FD0546B4F8600000F095FE264900F0E6FE0146284600F0DAFD0546B4F8620000F089FE214900F0DAFE0146284600F0CEFD67
:4014000004461E4BB3F8640000F07CFE002100F0CDFE0146204600F0C1FD31E07B14AE3DE8D9ACBCE2E9953C6A4DF3BC9B559FBE40A4DF3C6B2BF63EF77560BC1B2F5D3C12
:401440004C3709BD7A36ABBCDDB5043CAC8BDBBB38F8423CF4FD543C426065BB52491D3B5F294BBB3B70CEBB6F12833A6F1203BA6F12033AC3642A3B17B7D1B86481FF1FA7
:40148000044900F08BFD00F0E1FFC0B200F0C4FA38BD00BF0000D84208B562B600F01AFC00F064FA00F0F0FA00F024FD084800F0BBFC002000F092FC064800F04BFD002159
:4014C000084600F015FC044800F0AAFBFEE700BF050100008500000010250000F0B40022174611E050F82760F3B226F0FF0608E001EB420511F812406D78A5550132013BF1
:40150000DBB2002BF4D101370F2FEBD9F0BC704708B50A46002100F0F0FF08BDF8B5194B1B78DBB2184E3478E4B2184F3D78EDB203F00701164A11701B090132137044F041
:401540000303337045F003033B708022114B1A70022220331A7040230F4A137002321370202302F28D121370082190321170033213700A2000F0FCFB3D7034704422074BC6
:401580001A70F8BDCF010049F8460040F94600406E5800401D510040095900407658004008B500F09FFF08BD10B541F62D521D4B1A80182202331A7004221B491B48FFF709
:4015C000EFFF02211A4B197008224FF040231A70184B1B78DBB2184A13700622174B1A70A3F5FE7300221A8007201870144802704824023004701A70033B197004220A3312
:401600001A70104A137843F001031370013A137843F001031370013A137843F08003137010BD00BF80400040A800004800410040004300400D010049A14600400042004082
:4016400006400040A243004038B572B661222B4B1A70FFF7A9FF2A4A137843F00403137000240CE0274D630019194A0011462A44084691882858FFF74BFF0134E4B2082C7F
:40168000F0D921494FF09040FFF728FF1F4A137843F0020313701032137843F0020313701B4C237843F040032370A2F58632513A137843F010031370082216491648FFF77E
:4016C0006FFF082215491648FFF76AFF0A2215491548FFF765FF082214491548FFF760FF144A137843F008031370FFF717FF0E2221461148FFF754FF38BD00BF0048004092
:40170000E8460040342500004000004803500140A043004084000048C25100408C000048125100409400004820510040A00000483251004022430040B043004008B500F050
:40174000A5FE03680C2B00D1FEE7FEE708B5104E104D16E029686B68AC68002204E051F8040B43F8040B0432A242F8D1E868002203E0002143F8041B04328242F9D110353F
:40178000013E002EE6D100F087FEFFF785FEFEE7010000009025000008B5104A104B1A60104A136843F40073136000230AE0032B03D80D4A52F8231000E00C490C4A42F8EF
:4017C000231001332F2BF2D90A4B1A780A4B1A70074A0A4B1A60FFF737FF08BD0004FA050CED00E014ED00E0000000003D1700000080FF1FBC760040C080FF1F08ED00E032
:4018000008B50A280FD00C2802D0082806D102E04FF4805209E04FF4807206E0002000F08FFA002201E04FF480620021094B198042F2107303FB02F303F6C413064A82FBBC
:401840000302DB17C3EBE223044A1360044B198008BD00BFD281FF1FAD8BDB68CC81FF1FD081FF1F38B500F08BFB04461E4A137843F0020313701032137843F002031370E8
:401880001A3A137843F0010313701032137843F00103137002F5AA521A32137843F0030313701822114B1A70013B1A7842F040021A701A7802F0FC021A70CE22053B1A70D0
:4018C0000225A3F59753123B1D70094A137843F0080313700A2000F04BFA064B1D60204600F052FB38BD00BFAB4300400E5900402F5B004080E200E010B504460A280DD043
:401900000C2802D0082804D101E0C22207E0422205E0002000F014FAC22200E08222034B1A702046FFF76CFF10BD00BF0A59004008B5102000F0FAF90721012000F036FA1A
:401940000749012000F01EFA064A137843F0060313700820FFF7D0FF0022034B1A8008BDDD19000009590040D481FF1F08B5054B1B7823B9FFF7DCFF0122024B1A70FFF750
:4019800071FF08BD5D81FF1F044B1A7802F0FB021A701A7842F001021A7070470859004010B5074B1B7813F0010401D10028F8D024B1012000F0DCF9014B1B78204610BDB2
:4019C00009590040034B188880B2034B1B88C01A00B27047A25B0040D081FF1F704700BF054A137843F0080313701032137843F008031370704700BFA8430040054B1A7823
:401A000002F0FD021A701A7800F0020010431870704700BF2C580040014B1870704700BF835B0040064B1B78C3F3810303F19243063393F83831DBB2024A1370704700BF44
:401A40002C5800400B46004008B5064B1A7802F0F3021A701A7800F00C0010431870FFF7E1FF08BD2C58004008B50023054A1370013213700420FFF7E7FF0220FFF7BEFFFB
:401A800008BD00BF2C58004008B5074B1B7823B9FFF7EAFF0122044B1A70FFF7A1FF6420FFF7BAFF08BD00BF5E81FF1F10B50B4C237803F09F032370237803F0F003237048
:401AC0002378184340F010002070012000F050F9237803F0EF03237010BD00BFC051004038B505460E4C237843F020032370237803F0BF032370002000F03AF9237803F00C
:401B0000F003237023781D4345F010052570012000F02EF9237803F0EF03237038BD00BFC051004070B5354B1A7802F08002D2B21A7033490A7802F0F00242F00F020A709D
:401B400001310A7802F0F0020A7001310A7802F0F0020A701A7802F0DF021A701A7842F040021A704FF4CA76002000F001F9234D2B7843F010032B70012000F0F9F8214BD3
:401B80001C78E4B22B7803F0EF032B70002000F0EFF804F00804E4B22B7843F010032B70012000F0E5F82B7803F0EF032B7014B90A2000F0DDF8013E0CB1002ED4D10F4AD2
:401BC000137803F0BF031370137803F08003DBB213700232137803F0F00313700132137803F0F00343F00F0313700132137803F0F00343F00F03137070BD00BFC0510040D4
:401C0000C2510040C151004010B50446FFF78AFF2009FFF765FF04F00F00FFF761FF10BD38B505460078012404E0FFF7EDFF285D0134E4B20028F8D138BD00BF10B5044629
:401C4000FFF770FF2009FFF731FF04F00F00FFF72DFF10BD08B5282000F074F80320FFF725FF052000F06EF80320FFF71FFF0F2000F068F80320FFF719FF012000F062F853
:401C80000220FFF713FF052000F05CF80620FFF7D5FF0E20FFF7D2FF2C20FFF7CFFF0820FFF7CCFF0120FFF7C9FF0C20FFF7C6FF0320FFF7C3FF052000F044F808BD00BF3D
:401CC00008B50C20FFF7BAFF0122014B1A7008BD5F81FF1F08B5054B5B7823B9FFF7BAFF0122024B5A70FFF7EBFF08BD5F81FF1F08B5032819D8DFE800F002070D1381F01E
:401D00008000FFF79BFF08BDA1F14000C0B2FFF795FF08BDA1F16C00C0B2FFF78FFF08BDA1F12C00C0B2FFF789FF08BD034B1A7800F0F80010431870704700BF0241004073
:401D400001BE704710B5044605E0084B186800F00FF9A4F50044B4F5004FF6D8034B586800FB04F000F004F910BD00BFCC80FF1F08B5034B1B7A00FB03F000F0F9F808BD77
:401D8000CC80FF1F70B504460E46074B1D681F2802D90020FFF7D4FF04F01F04103455F8240045F8246070BD08ED00E038B504460D46072902D90020FFF7C2FF1F2C02D9F3
:401DC0000020FFF7BDFF04F01F0000F1604000F564406D01EDB2057038BD00BF044A137803F0FD03400000F0020018431070704720510040014B1B681864704708ED00E086
:401E00004001C0B2014B1870704700BF00E400E00122014B1A60704700E100E00122014B1A60704780E100E010B50446FFF7F6FF2046FFF7DFFF0720FFF7E2FFFFF7E8FF90
:401E400010BD00BF084A137843F0010313701032137843F00103137002F64D32137843F001031370704700BFA3430040014B1870704700BF034F0040014B1880704700BF2A
:401E8000044F0040014B1880704700BF064F004008B5154A137803F0010313700232137803F0FC031370114B1A7802F0CF021A701A7842F030021A701A7802F0F0021A7090
:401EC0001A7842F00F021A70094A137843F0010313702720FFF7D0FF2720FFF7D3FF0020FFF7C4FF08BD00BF004F00400B4F0040014F004008B5054B1B7823B9FFF7C8FF81
:401F00000122024B1A70FFF79DFF08BD6181FF1F024B1878C0F38000704700BF82450040014B1B689865704708ED00E04001C0B2014B1870704700BF06E400E04022014BF6
:401F40001A60704700E100E04022014B1A60704780E100E010B50446FFF7F6FF2046FFF7DFFF0720FFF7E2FFFFF7E8FF10BD00BF0230800803D000BF01380046FCD1704765
:401F8000EFF3108072B6704780F31088704700BF80F0004002E000BF81F0004142001FBF5FEA410392EA030F7FEA226C7FEA236C6AD04FEA1262D2EB1363C1BFD21841401D
:401FC00048404140B8BF5B42192B88BF704710F0004F40F4000020F07F4018BF404211F0004F41F4000121F07F4118BF494292EA030F3FD0A2F1010241FA03FC10EB0C00AA
:40200000C3F1200301FA03F100F0004302D5494260EB4000B0F5000F13D3B0F1807F06D340084FEA310102F10102FE2A51D2B1F1004F40EBC25008BF20F0010040EA030080
:402040007047490040EB000010F4000FA2F10102EDD1B0FA80FCACF1080CB2EB0C0200FA0CF0AABF00EBC25052421843BCBFD0401843704792F0000F81F4000106BF80F424
:4020800000000132013BB5E74FEA41037FEA226C18BF7FEA236C21D092EA030F04D092F0000F08BF0846704790EA010F1CBF0020704712F07F4F04D1400028BF40F00040AA
:4020C000704712F100723CBF00F50000704700F0004343F0FE4040F4000070477FEA226216BF08467FEA23630146420206BF5FEA412390EA010F40F4800070474FF000034B
:4021000004E000BF10F0004348BF40425FEA000C08BF704743F0964301464FF000001CE050EA010208BF70474FF000030AE000BF50EA010208BF704711F0004302D54042D1
:4021400061EB41015FEA010C02BF84460146002043F0B64308BFA3F18053A3F50003BCFA8CF2083AA3EBC25310DB01FA02FC634400FA02FCC2F12002BCF1004F20FA02F219
:4021800043EB020008BF20F00100704702F1200201FA02FCC2F1200250EA4C0021FA02F243EB020008BF20EADC7070474FF0FF0C1CEAD0521EBF1CEAD15392EA0C0F93EA57
:4021C0000C0F6FD01A4480EA010C400218BF5FEA41211ED04FF0006343EA501043EA5111A0FB01310CF00040B1F5000F3EBF490041EAD3715B0040EA010062F17F02FD2A4C
:402200001DD8B3F1004F40EBC25008BF20F00100704790F0000F0CF0004C08BF49024CEA502040EA51207F3AC2BFD2F1FF0340EAC250704740F400004FF00003013A5DDCE4
:4022400012F1190FDCBF00F000407047C2F10002410021FA02F1C2F1200200FA02FC5FEA310040F1000053EA4C0308BF20EADC70704792F0000F00F0004C02BF400010F403
:40228000000F013AF9D040EA0C0093F0000F01F0004C02BF490011F4000F013BF9D041EA0C018FE70CEAD15392EA0C0F18BF93EA0C0F0AD030F0004C18BF31F0004CD8D1E2
:4022C00080EA010000F00040704790F0000F17BF90F0004F084691F0000F91F0004F14D092EA0C0F01D142020FD193EA0C0F03D14B0218BF084608D180EA010000F00040E7
:4023000040F0FE4040F40000704740F0FE4040F4400070474FF0FF0C1CEAD0521EBF1CEAD15392EA0C0F93EA0C0F69D0A2EB030280EA010C49024FEA402037D04FF08053C4
:4023400043EA111143EA10130CF000408B4238BF5B0042F17D024FF4000C8B4224BF5B1A40EA0C00B3EB510F24BFA3EB510340EA5C00B3EB910F24BFA3EB910340EA9C00B5
:40238000B3EBD10F24BFA3EBD10340EADC001B0118BF5FEA1C1CE0D1FD2A3FF650AF8B4240EBC25008BF20F0010070470CF0004C4CEA50207F32C2BFD2F1FF0340EAC2501A
:4023C000704740F400004FF00003013A37E792F0000F00F0004C02BF400010F4000F013AF9D040EA0C0093F0000F01F0004C02BF490011F4000F013BF9D041EA0C0195E796
:402400000CEAD15392EA0C0F08D142027FF47DAF93EA0C0F7FF470AF084676E793EA0C0F04D14B023FF44CAF08466EE730F0004C18BF31F0004CCAD130F000427FF45CAFA4
:4024400031F000437FF43CAF5FE700BF42000ED2B2F1FE4F0BD34FF09E03B3EB126209D44FEA002343F0004323FA02F070474FF00000704712F1610F01D1420202D14FF0AD
:40248000FF3070474FF00000704700BF014B1868704700BF3C81FF1F0E4B70B51E460E4C0025E41AA410A54204D056F8253098470135F8E700F05AF8084B094C1E46E41AB3
:4024C000A4100025A54204D056F8253098470135F8E770BD7825000078250000782500008025000010B5431E0A44914204D011F8014B03F8014FF8E710BD0346024493423D
:4025000002D003F8011BFAE770470000000000004D7565737472656F00000000416C666100000000426574610000000047616D6D61000000004F00400C00005100401000B7
:40254000405100403000F0510040100000000140001000140140000800400140000A004C014000020050014020004300F8B500BFF8BC08BC9E4670474D0000009917000091
:40258000F8B500BFF8BC08BC9E46704729000000A0250000C880FF1F7800000098000000000000000000E691CC2301004B000000E0D473040000000000000000000000005B
:4025C00000000000000000000000000000000000000000006A250000000000000000000000000000000000000000000000000000000000000000000000000000000000004C
:402600000000000000000000000000000000000000000000DC80FF1F0000000000000000000000000000000000000000000000000000000000000000000000000000000020
:40264000000000000000000000000000000000000000000000000000000000000000000000000000000000000000000000000000000000000000000000000000000000005A
:40268000000000000000000000000000000000000000000000000000000000000000000000000000000000000000000000000000000000000000000000000000000000001A
:4026C00000000000000000000000000000000000000000000000000000000000000000000000000000000000000000000000000000000000000000000000000000000000DA
:402700000000000000000000000000000000000000000000000000000000000000000000000000000000000000000000000000000000000000000000000000000000000099
:020000040003F7
:0200000480007A
:4000000001450040014F00400107014001090140040A0140010B014001170140011901400340014002410140064201400343014003480140034C014001500140015101406D
:4000400012020A4BEE08AF20B820BE10D804DF011F20E608E60830203610CC30A420A61010206302A420A610C410D640A610AF01EE108610A610E6101F208720C601021467
:40008000000E0000007F7F0000000000000B0B000000800004000006020000000000000000000000000002003D00180100000000000000000000000000000000000000003A
:4000C0000000000000000000000000000000000000000000000000000000000000000000000000000000000000000000000000000000000000000000000000000000000000
:4001000000000000000000000000000000000000000000000000000000000000000000000000000000000000000000000000000000000000000000000000000000000000BF
:40014000000000000000000000000000000000000000000000000000000000000000000000000000000000000000000000000000000000000000000000000000000000007F
:40018000000000000000000000000000000000000000000000000000000000000000000000000000000000000000000000000000000000000000000000000000000000003F
:0200000490006A
:0400000000004005B7
:0200000490105A
:04000000BC90ACAF55
:0200000490303A
:0200000024409A
:0200000490402A
:4000000000000000000000000000000000000000000000000000000000000000000000000000000000000000000000000000000000000000000000000000000000000000C0
:400040000000000000000000000000000000000000000000000000000000000000000000000000000000000000000000000000000000000000000000000000000000000080
:400080000000000000000000000000000000000000000000000000000000000000000000000000000000000000000000000000000000000000000000000000000000000040
:4000C0000000000000000000000000000000000000000000000000000000000000000000000000000000000000000000000000000000000000000000000000000000000000
:0200000490501A
:0C00000000012E16106900012E2634A904
:00000001FF