:400000000080002011000000891700008917000008B5044B1A6803F53F5302331A6001F0BBFB00BFFA46004010B5054C237833B9044B13B10448AFF300800123237010BD80
:400040004081FF1F000000000C270000084B10B51BB108490848AFF300800848036803B910BD074B002BFBD0BDE81040184700BF000000004481FF1F0C270000C880FF1FAC
:400080000000000008B501F0DBFEC043C0B201F0CBFE1A4B1B78DBB2032B03D10022174B1A7004E0154A13780133DBB21370134B1B78DBB2032B1ED8DFE803F00209101755
:4000C000012001F0E1FD0E4801F0D0FD13E0012001F0DAFD0B4801F0C9FD0CE0012001F0D3FD094801F0C2FD05E0012001F0CCFD064801F0BBFD01F039FF08BD5C81FF1FA7
:40010000102700001C270000242700002C27000038B5074B1B7813F0FF0F0BD101F05AFC002001F063FC01F073FCC4B201F0B1B95C81FF1FAE4B1B78DBB2012B40F03883D5
:40014000AC4CB4F86230A4F86430B4F86030A4F86230B4F85E30A4F86030B4F85C30A4F85E30B4F85A30A4F85C30B4F85830A4F85A30B4F85630A4F85830B4F85430A4F80D
:400180005630B4F85230A4F85430B4F85030A4F85230B4F84E30A4F85030B4F84C30A4F84E30B4F84A30A4F84C30B4F84830A4F84A30B4F84630A4F84830B4F84430A4F82F
:4001C0004630B4F84230A4F84430B4F84030A4F84230E38FA4F84030A38FE387638FA387238F6387E38E2387A38EE386638EA386238E6386E38D2386A38DE385638DA3852D
:40020000238D6385E38C2385A38CE384638CA384238C6384E38B2384A38BE383638BA383238B6383E38A2383A38AE382638AA382238A6382E3892382A389E3816389A38182
:4002400023896381E3882381A388E3806388A3802388638001F0BEFB002001F0C7FB01F0D7FB80B2208002F04DF8634902F09EF80546608802F046F8604902F097F8014664
:40028000284601F08BFF0546A08802F03BF85C4902F08CF80146284601F080FF0546E08802F030F8574902F081F80146284601F075FF0546208902F025F8524902F076F88D
:4002C0000146284601F06AFF0546608902F01AF84D4902F06BF80146284601F05FFF0546A08902F00FF8494902F060F80146284601F054FF0546E08902F004F8444902F065
:4003000055F80146284601F049FF0546208A01F0F9FF404902F04AF80146284601F03EFF0546608A01F0EEFF3B4902F03FF80146284601F033FF0546A08A01F0E3FF3749A4
:4003400002F034F80146284601F028FF0546E08A01F0D8FF324902F029F80146284601F01DFF0546208B01F0CDFF2E4902F01EF80146284601F012FF0546608B01F0C2FFF4
:40038000294902F013F80146284601F007FF0546A08B01F0B7FF254902F008F80146284601F0FCFE0546E08B01F0ACFF204901F0FDFF0146284601F0F1FE0546208C01F0E0
:4003C000A1FF1C4901F0F2FF0146284601F0E6FE0546608C01F096FF174901F0E7FF0146284601F0DBFE0546A08C01F08BFF25E05C81FF1F6481FF1F17B7D13A6C09F93AA3
:4004000099BB163BC3642A3B6F12033B52491D3AE02D10BB3B70CEBBCA5441BC508D97BCCE88D2BC948705BDE3A51BBDC28627BD9D1125BD97FF10BDABCFD5BCB74901F047
:40044000B5FF0146284601F0A9FE0546E08C01F059FFB34901F0AAFF0146284601F09EFE0546208D01F04EFFAE4901F09FFF0146284601F093FE0546608D01F043FFAA4952
:4004800001F094FF0146284601F088FE0546A08D01F038FFA54901F089FF0146284601F07DFE0546E08D01F02DFFA14901F07EFF0146284601F072FE0546208E01F022FF16
:4004C0009C4901F073FF0146284601F067FE0546608E01F017FF984901F068FF0146284601F05CFE0546A08E01F00CFF914901F05DFF0146284601F051FE0546E08E01F0F5
:4005000001FF8B4901F052FF0146284601F046FE0546208F01F0F6FE844901F047FF0146284601F03BFE0546608F01F0EBFE7E4901F03CFF0146284601F030FE0546A08FA4
:4005400001F0E0FE774901F031FF0146284601F025FE0546E08F01F0D5FE714901F026FF0146284601F01AFE0546B4F8400001F0C9FE6A4901F01AFF0146284601F00EFE98
:400580000546B4F8420001F0BDFE6C4901F00EFF0146284601F002FE0546B4F8440001F0B1FE674901F002FF0146284601F0F6FD0546B4F8460001F0A5FE624901F0F6FE86
:4005C0000146284601F0EAFD0546B4F8480001F099FE5D4901F0EAFE0146284601F0DEFD0546B4F84A0001F08DFE584901F0DEFE0146284601F0D2FD0546B4F84C0001F0D3
:4006000081FE534901F0D2FE0146284601F0C6FD0546B4F84E0001F075FE4E4901F0C6FE0146284601F0BAFD0546B4F8500001F069FE494901F0BAFE0146284601F0AEFDF8
:400640000546B4F8520001F05DFE444901F0AEFE0146284601F0A2FD0546B4F8540001F051FE3F4901F0A2FE0146284601F096FD0546B4F8560001F045FE3A4901F096FE10
:400680000146284601F08AFD0546B4F8580001F039FE354901F08AFE0146284601F07EFD0546B4F85A0001F02DFE304901F07EFE0146284601F072FD0546B4F85C0001F0D2
:4006C00021FE2B4901F072FE0146284601F066FD0546B4F85E0001F015FE254901F066FE0146284601F05AFD0546B4F8600001F009FE204901F05AFE0146284601F04EFDF2
:400700000546B4F8620001F0FDFD1B4901F04EFE0146284601F042FD04462FE0CDCC4CBCBC74933B1283C03C0E4F2F3DFE65773DE3C7983DE86AAB3DA1F8B13DABCFD5BC3B
:4007400097FF10BD9D1125BDC28627BDE3A51BBD948705BDCE88D2BC508D97BCCA5441BC3B70CEBBE02D10BB52491D3A6F12033BC3642A3B99BB163B6C09F93A094BB3F859
:40078000640001F0BFFD084901F010FE0146204601F004FD054901F001FD01F057FFC4B200F077BE6481FF1F17B7D13A0000D842AE4B1B78DBB2022B40F03C83AC4CB4F84B
:4007C0006230A4F86430B4F86030A4F86230B4F85E30A4F86030B4F85C30A4F85E30B4F85A30A4F85C30B4F85830A4F85A30B4F85630A4F85830B4F85430A4F85630B4F8F9
:400800005230A4F85430B4F85030A4F85230B4F84E30A4F85030B4F84C30A4F84E30B4F84A30A4F84C30B4F84830A4F84A30B4F84630A4F84830B4F84430A4F84630B4F8B8
:400840004230A4F84430B4F84030A4F84230E38FA4F84030A38FE387638FA387238F6387E38E2387A38EE386638EA386238E6386E38D2386A38DE385638DA385238D638530
:40088000E38C2385A38CE384638CA384238C6384E38B2384A38BE383638BA383238B6383E38A2383A38AE382638AA382238A6382E3892382A389E3816389A3812389638104
:4008C000E3882381A388E3806388A3802388638001F080F8002001F089F801F099F880B2208001F00FFD634901F060FD0546608801F008FD604901F059FD0146284601F0BA
:400900004DFC0546A08801F0FDFC5C4901F04EFD0146284601F042FC0546E08801F0F2FC574901F043FD0146284601F037FC0546208901F0E7FC534901F038FD01462846D1
:4009400001F02CFC0546608901F0DCFC4E4901F02DFD0146284601F021FC0546A08901F0D1FC4A4901F022FD0146284601F016FC0546E08901F0C6FC454901F017FD01461E
:40098000284601F00BFC0546208A01F0BBFC414901F00CFD0146284601F000FC0546608A01F0B0FC3C4901F001FD0146284601F0F5FB0546A08A01F0A5FC384901F0F6FCC7
:4009C0000146284601F0EAFB0546E08A01F09AFC334901F0EBFC0146284601F0DFFB0546208B01F08FFC2F4901F0E0FC0146284601F0D4FB0546608B01F084FC2A4901F025
:400A0000D5FC0146284601F0C9FB0546A08B01F079FC264901F0CAFC0146284601F0BEFB0546E08B01F06EFC214901F0BFFC0146284601F0B3FB0546208C01F063FC1D49F2
:400A400001F0B4FC0146284601F0A8FB0546608C01F058FC184901F0A9FC0146284601F09DFB0546A08C01F04DFC27E05C81FF1F6481FF1F6F1283BA89D2DEBA99BB163BCF
:400A8000FAEDEBBA17B7D1B9E02D103BC364AA3B4260E53B17B7D13B4260653B52499D3917B751B927A0893BE3A51BBD2E90A03C05A3923CFAEDEB3A8C4AEABCB74901F053
:400AC00075FC0146284601F069FB0546E08C01F019FCB34901F06AFC0146284601F05EFB0546208D01F00EFCAE4901F05FFC0146284601F053FB0546608D01F003FCAA4927
:400B000001F054FC0146284601F048FB0546A08D01F0F8FBA54901F049FC0146284601F03DFB0546E08D01F0EDFBA14901F03EFC0146284601F032FB0546208E01F0E2FBED
:400B40009C4901F033FC0146284601F027FB0546608E01F0D7FB984901F028FC0146284601F01CFB0546A08E01F0CCFB914901F01DFC0146284601F011FB0546E08E01F088
:400B8000C1FB8B4901F012FC0146284601F006FB0546208F01F0B6FB844901F007FC0146284601F0FBFA0546608F01F0ABFB7E4901F0FCFB0146284601F0F0FA0546A08F7D
:400BC00001F0A0FB774901F0F1FB0146284601F0E5FA0546E08F01F095FB714901F0E6FB0146284601F0DAFA0546B4F8400001F089FB6A4901F0DAFB0146284601F0CEFA73
:400C00000546B4F8420001F07DFB6C4901F0CEFB0146284601F0C2FA0546B4F8440001F071FB674901F0C2FB0146284601F0B6FA0546B4F8460001F065FB624901F0B6FB1A
:400C40000146284601F0AAFA0546B4F8480001F059FB5D4901F0AAFB0146284601F09EFA0546B4F84A0001F04DFB584901F09EFB0146284601F092FA0546B4F84C0001F021
:400C800041FB534901F092FB0146284601F086FA0546B4F84E0001F035FB4E4901F086FB0146284601F07AFA0546B4F8500001F029FB494901F07AFB0146284601F06EFACD
:400CC0000546B4F8520001F01DFB444901F06EFB0146284601F062FA0546B4F8540001F011FB3F4901F062FB0146284601F056FA0546B4F8560001F005FB3A4901F056FBA2
:400D00000146284601F04AFA0546B4F8580001F0F9FA354901F04AFB0146284601F03EFA0546B4F85A0001F0EDFA304901F03EFB0146284601F032FA0546B4F85C0001F022
:400D4000E1FA2B4901F032FB0146284601F026FA0546B4F85E0001F0D5FA264901F026FB0146284601F01AFA0546B4F8600001F0C9FA214901F01AFB0146284601F00EFAC7
:400D80000546B4F8620001F0BDFA1C4901F00EFB0146284601F002FA044631E0931884BDECC0B9BDED9EBCBD90A078BD17B7D1BADE718A3DFFB2FB3DBC74133E8C4AEABC0A
:400DC000FAEDEB3A05A3923C2E90A03CCDCC4C3C27A0893B17B751B952499D394260653B17B7D13B4260E53BC364AA3BE02D103B17B7D1B9FAEDEBBA27A009BB89D2DEBA3E
:400E0000094BB3F8640001F07DFA084901F0CEFA0146204601F0C2F9054901F0BFF901F015FCC4B235E300BF6481FF1F6F1283BA0000D842AF4CB4F86230A4F86430B4F84E
:400E40006030A4F86230B4F85E30A4F86030B4F85C30A4F85E30B4F85A30A4F85C30B4F85830A4F85A30B4F85630A4F85830B4F85430A4F85630B4F85230A4F85430B4F892
:400E80005030A4F85230B4F84E30A4F85030B4F84C30A4F84E30B4F84A30A4F84C30B4F84830A4F84A30B4F84630A4F84830B4F84430A4F84630B4F84230A4F84430B4F852
:400EC0004030A4F84230E38FA4F84030A38FE387638FA387238F6387E38E2387A38EE386638EA386238E6386E38D2386A38DE385638DA385238D6385E38C2385A38CE3842B
:400F0000638CA384238C6384E38B2384A38BE383638BA383238B6383E38A2383A38AE382638AA382238A6382E3892382A389E3816389A38123896381E3882381A388E3808D
:400F40006388A3802388638000F044FD002000F04DFD00F05DFD80B2208001F0D3F9002101F024FA0546608801F0CCF9624901F01DFA0146284601F011F90546A08801F091
:400F8000C1F95E4901F012FA0146284601F006F90546E08801F0B6F9594901F007FA0146284601F0FBF80546208901F0ABF9554901F0FCF90146284601F0F0F805466089DF
:400FC00001F0A0F9504901F0F1F90146284601F0E5F80546A08901F095F94C4901F0E6F90146284601F0DAF80546E08901F08AF9474901F0DBF90146284601F0CFF805466B
:40100000208A01F07FF9434901F0D0F90146284601F0C4F80546608A01F074F93E4901F0C5F90146284601F0B9F80546A08A01F069F93A4901F0BAF90146284601F0AEF89A
:401040000546E08A01F05EF9354901F0AFF90146284601F0A3F80546208B01F053F9314901F0A4F90146284601F098F80546608B01F048F92C4901F099F90146284601F0A4
:401080008DF80546A08B01F03DF9284901F08EF90146284601F082F80546E08B01F032F9234901F083F90146284601F077F80546208C01F027F91F4901F078F901462846BE
:4010C00001F06CF80546608C01F01CF91A4901F06DF90146284601F061F80546A08C01F011F9164901F062F90146284601F056F8054625E06481FF1F17B7D1B899BB163B45
:401100006F12033A6F1203BA6F12833A3B70CEBB5F294BBB52491D3B426065BBF4FD543C38F8423CAC8BDBBBE3A51BBD7A36ABBC4C3709BD1B2F5D3CF77560BC40A4DF3CD8
:40114000E08C01F0DFF8B84901F030F90146284601F024F80546208D01F0D4F8B34901F025F90146284601F019F80546608D01F0C9F8AF4901F01AF90146284601F00EF855
:401180000546A08D01F0BEF8AA4901F00FF90146284601F003F80546E08D01F0B3F8A64901F004F90146284600F0F8FF0546208E01F0A8F8A14901F0F9F80146284600F0BB
:4011C000EDFF0546608E01F09DF89D4901F0EEF80146284600F0E2FF0546A08E01F092F8964901F0E3F80146284600F0D7FF0546E08E01F087F8904901F0D8F8014628466F
:4012000000F0CCFF0546208F01F07CF8894901F0CDF80146284600F0C1FF0546608F01F071F8834901F0C2F80146284600F0B6FF0546A08F01F066F87C4901F0B7F80146CD
:40124000284600F0ABFF0546E08F01F05BF8764901F0ACF80146284600F0A0FF0546B4F8400001F04FF8754901F0A0F80146284600F094FF0546B4F8420001F043F87149C3
:4012800001F094F80146284600F088FF0546B4F8440001F037F86C4901F088F80146284600F07CFF0546B4F8460001F02BF8674901F07CF80146284600F070FF0546B4F873
:4012C000480001F01FF8624901F070F80146284600F064FF0546B4F84A0001F013F85D4901F064F80146284600F058FF0546B4F84C0001F007F8584901F058F8014628469C
:4013000000F04CFF0546B4F84E0000F0FBFF534901F04CF80146284600F040FF0546B4F8500000F0EFFF4E4901F040F80146284600F034FF0546B4F8520000F0E3FF494924
:4013400001F034F80146284600F028FF0546B4F8540000F0D7FF444901F028F80146284600F01CFF0546B4F8560000F0CBFF3F4901F01CF80146284600F010FF0546B4F8D6
:40138000580000F0BFFF3A4901F010F80146284600F004FF0546B4F85A0000F0B3FF354901F004F80146284600F0F8FE0546B4F85C0000F0A7FF304900F0F8FF014628460C
:4013C00000F0ECFE0546B4F85E0000F09BFF2B4900F0ECFF0146284600F0E0FE0546B4F8600000F08FFF264900F0E0FF0146284600F0D4FE0546B4F8620000F083FF2149A3
:4014000000F0D4FF0146284600F0C8FE04461E4BB3F8640000F076FF002100F0C7FF0146204600F0BBFE31E07B14AE3DE8D9ACBCE2E9953C6A4DF3BC9B559FBE40A4DF3C28
:401440006B2BF63EF77560BC1B2F5D3C4C3709BD7A36ABBCDDB5043CAC8BDBBB38F8423CF4FD543C426065BB52491D3B5F294BBB3B70CEBB6F12833A6F1203BA6F12033A58
:40148000C3642A3B17B7D1B86481FF1F01F0DEF8C4B214F0800F05D1C4F18000C0B200F0A9FD03E084F0800000F0A4FD04F16C00C0B200F0D7FA38BD08B562B600F030FC81
:4014C00000F07AFA00F006FB00F042FD0B4800F0D9FC012000F0A8FC00F0D6FD084800F067FD00F033FE9A2000F0F8FD0021084600F024FC034800F0B9FBFEE7110100000F
:401500008500000010270000F0B40022174611E050F82760F3B226F0FF0608E001EB420511F812406D78A5550132013BDBB2002BF4D10137132FEBD9F0BC704708B50A465D
:40154000002101F0DAF808BDF8B51B4B1B78DBB21A4E3478E4B21A4F3D78EDB203F00701184A11701B090132137044F00303337045F003033B7048F24002134B1A80022215
:4015800021331A704023114A13700232137001220F4B1A7020230F4A1370082190321170033213700A2000F009FC3D7034704422094B1A70F8BD00BFCF010049F84600404C
:4015C000F94600406E5800401C510040095900408B5A0040985A00407658004008B501F081F808BD10B540F2EA22204B1A8018231F4A137041F62D51023211800232137066
:4016000004221C491C48FFF7E9FF02211B4B197008224FF040231A70194B1B78DBB2194A13700622184B1A70A3F5FE7300221A8007201870154802704824023004701A7017
:40164000033B197004220A331A70114A137843F003031370013A137843F001031370013A137843F08003137010BD00BF80400040824000404C01004800410040004300406E
:401680000D010049A14600400042004006400040A243004038B572B661222B4B1A70FFF7A1FF2A4A137843F00403137000240CE0274D630019194A0011462A440846918806
:4016C0002858FFF73BFF0134E4B2082CF0D921494FF09040FFF718FF1F4A137843F0020313701032137843F0020313701B4C237843F040032370A2F58632513A137843F012
:4017000010031370082216491648FFF767FF082215491648FFF762FF0A2215491548FFF75DFF082214491548FFF758FF144A137843F008031370FFF707FF0E222146114893
:40174000FFF74CFF38BD00BF00480040E8460040342700005000004803500140A043004028010048C251004030010048125100403801004820510040440100483251004072
:4017800022430040B043004008B500F07FFF03680C2B00D1FEE7FEE708B5104E104D16E029686B68AC68002204E051F8040B43F8040B0432A242F8D1E868002203E0002102
:4017C00043F8041B04328242F9D11035013E002EE6D100F061FFFFF76FFEFEE7010000009027000008B5104A104B1A60104A136843F40073136000230AE0032B03D80D4AC7
:4018000052F8231000E00C490C4A42F8231001332F2BF2D90A4B1A780A4B1A70074A0A4B1A60FFF737FF08BD0004FA050CED00E014ED00E000000000891700000080FF1F08
:40184000BC760040C080FF1F08ED00E008B50A280FD00C2802D0082806D102E04FF4805209E04FF4807206E0002000F08FFA002201E04FF480620021094B198042F2107367
:4018800003FB02F303F6C413064A82FB0302DB17C3EBE223044A1360044B198008BD00BFD281FF1FAD8BDB68CC81FF1FD081FF1F38B500F065FC04461E4A137843F0020348
:4018C00013701032137843F0020313701A3A137843F0010313701032137843F00103137002F5AA521A32137843F0030313701822114B1A70013B1A7842F040021A701A78B9
:4019000002F0FC021A70CE22053B1A700225A3F59753123B1D70094A137843F0080313700A2000F04BFA064B1D60204600F02CFC38BD00BFAB4300400E5900402F5B004053
:4019400080E200E010B504460A280DD00C2802D0082804D101E0C22207E0422205E0002000F014FAC22200E08222034B1A702046FFF76CFF10BD00BF0A59004008B51020C6
:4019800000F0FAF90721012000F036FA0749012000F01EFA064A137843F0060313700820FFF7D0FF0022034B1A8008BD291A000009590040D481FF1F08B5054B1B7823B938
:4019C000FFF7DCFF0122024B1A70FFF771FF08BD5D81FF1F044B1A7802F0FB021A701A7842F001021A7070470859004010B5074B1B7813F0010401D10028F8D024B1012088
:401A000000F0DCF9014B1B78204610BD09590040034B188880B2034B1B88C01A00B27047A25B0040D081FF1F704700BF054A137843F0080313701032137843F0080313708E
:401A4000704700BFA8430040054B1A7802F0FD021A701A7800F0020010431870704700BF2C580040014B1870704700BF835B0040064B1B78C3F3810303F19243063393F8BC
:401A80003831DBB2024A1370704700BF2C5800400B46004008B5064B1A7802F0F3021A701A7800F00C0010431870FFF7E1FF08BD2C58004008B50023054A13700132137055
:401AC0000420FFF7E7FF0220FFF7BEFF08BD00BF2C58004008B5074B1B7823B9FFF7EAFF0122044B1A70FFF7A1FF6420FFF7BAFF08BD00BF5E81FF1F10B50B4C237803F07C
:401B00009F032370237803F0F00323702378184340F010002070012000F050F9237803F0EF03237010BD00BFC051004038B505460E4C237843F020032370237803F0BF03E6
:401B40002370002000F03AF9237803F0F003237023781D4345F010052570012000F02EF9237803F0EF03237038BD00BFC051004070B5354B1A7802F08002D2B21A7033491C
:401B80000A7802F0F00242F00F020A7001310A7802F0F0020A7001310A7802F0F0020A701A7802F0DF021A701A7842F040021A704FF4CA76002000F001F9234D2B7843F08C
:401BC00010032B70012000F0F9F8214B1C78E4B22B7803F0EF032B70002000F0EFF804F00804E4B22B7843F010032B70012000F0E5F82B7803F0EF032B7014B90A2000F073
:401C0000DDF8013E0CB1002ED4D10F4A137803F0BF031370137803F08003DBB213700232137803F0F00313700132137803F0F00343F00F0313700132137803F0F00343F068
:401C40000F03137070BD00BFC0510040C2510040C151004010B50446FFF78AFF2009FFF765FF04F00F00FFF761FF10BD38B505460078012404E0FFF7EDFF285D0134E4B2CB
:401C80000028F8D138BD00BF10B50446FFF770FF2009FFF731FF04F00F00FFF72DFF10BD08B5282000F074F80320FFF725FF052000F06EF80320FFF71FFF0F2000F068F8FB
:401CC0000320FFF719FF012000F062F80220FFF713FF052000F05CF80620FFF7D5FF0E20FFF7D2FF2C20FFF7CFFF0820FFF7CCFF0120FFF7C9FF0C20FFF7C6FF0320FFF7F8
:401D0000C3FF052000F044F808BD00BF08B50C20FFF7BAFF0122014B1A7008BD5F81FF1F08B5054B5B7823B9FFF7BAFF0122024B5A70FFF7EBFF08BD5F81FF1F08B5032888
:401D400019D8DFE800F002070D1381F08000FFF79BFF08BDA1F14000C0B2FFF795FF08BDA1F16C00C0B2FFF78FFF08BDA1F12C00C0B2FFF789FF08BD034B1A7800F0F800C5
:401D800010431870704700BF0241004001BE704710B5044605E0084B186800F0E9F9A4F50044B4F5004FF6D8034B586800FB04F000F0DEF910BD00BFCC80FF1F08B5034BD8
:401DC0001B7A00FB03F000F0D3F908BDCC80FF1F70B504460E46074B1D681F2802D90020FFF7D4FF04F01F04103455F8240045F8246070BD08ED00E038B504460D46072987
:401E000002D90020FFF7C2FF1F2C02D90020FFF7BDFF04F01F0000F1604000F564406D01EDB2057038BD00BF044A137803F0FD03400000F002001843107070472051004044
:401E4000024B1878C0F34000704700BF21510040014B1B681864704708ED00E04001C0B2014B1870704700BF00E400E00122014B1A60704700E100E00122014B1A607047D1
:401E800080E100E010B50446FFF7F6FF2046FFF7DFFF0720FFF7E2FFFFF7E8FF10BD00BF084A137843F0010313701032137843F00103137002F64D32137843F0010313706C
:401EC000704700BFA3430040014B1870704700BF034F0040014B1880704700BF044F0040014B1880704700BF064F004008B5154A137803F0010313700232137803F0FC03BC
:401F00001370114B1A7802F0CF021A701A7842F030021A701A7802F0F0021A701A7842F00F021A70094A137843F0010313702720FFF7D0FF2720FFF7D3FF0020FFF7C4FF78
:401F400008BD00BF004F00400B4F0040014F004008B5054B1B7823B9FFF7C8FF0122024B1A70FFF79DFF08BD6181FF1F024B1878C0F38000704700BF82450040014B1B683E
:401F80009865704708ED00E04001C0B2014B1870704700BF06E400E04022014B1A60704700E100E04022014B1A60704780E100E010B50446FFF7F6FF2046FFF7DFFF0720B6
:401FC000FFF7E2FFFFF7E8FF10BD00BF024A137843F080031370704777640040014B1870704700BF07640040014B1870704700BF47640040014B1870704700BF2764004080
:40200000014B1870704700BF87640040014B1878704700BF67640040014B1878704700BF5764004008B501E0FFF7F6FFFFF7EEFF10F0100FF8D108BD10B5114A137803F0CA
:40204000C00343F0090313700E4C237843F001032370FF20FFF7C2FFFF20FFF7C5FF7F20FFF7C8FF0020FFF7CBFF00F089F8237843F01003237000F087F8FFF7D3FF10BD48
:40208000776400409764004008B5054B1B7823B9FFF7D2FF0122024B1A70FFF797FF08BD6281FF1F054A137843F0020313701032137843F002031370704700BFA84300407D
:4020C000054B1A7802F0FD021A701A7800F0020010431870704700BF24580040014B1870704700BF815B0040064B1B78C3F3810303F19243063393F83031DBB2024A137024
:40210000704700BF245800400946004008B5064B1A7802F0F3021A701A7800F00C0010431870FFF7E1FF08BD2458004010B50024054B1C7001331C700420FFF7E7FF204622
:40214000FFF7BEFF10BD00BF2458004008B5074B1B7823B9FFF7EAFF0122044B1A70FFF7A1FF6420FFF7BAFF08BD00BF6381FF1F0230800803D000BF01380046FCD170476D
:40218000EFF3108072B6704780F31088704700BF80F0004002E000BF81F0004142001FBF5FEA410392EA030F7FEA226C7FEA236C6AD04FEA1262D2EB1363C1BFD21841401B
:4021C00048404140B8BF5B42192B88BF704710F0004F40F4000020F07F4018BF404211F0004F41F4000121F07F4118BF494292EA030F3FD0A2F1010241FA03FC10EB0C00A8
:40220000C3F1200301FA03F100F0004302D5494260EB4000B0F5000F13D3B0F1807F06D340084FEA310102F10102FE2A51D2B1F1004F40EBC25008BF20F0010040EA03007E
:402240007047490040EB000010F4000FA2F10102EDD1B0FA80FCACF1080CB2EB0C0200FA0CF0AABF00EBC25052421843BCBFD0401843704792F0000F81F4000106BF80F422
:4022800000000132013BB5E74FEA41037FEA226C18BF7FEA236C21D092EA030F04D092F0000F08BF0846704790EA010F1CBF0020704712F07F4F04D1400028BF40F00040A8
:4022C000704712F100723CBF00F50000704700F0004343F0FE4040F4000070477FEA226216BF08467FEA23630146420206BF5FEA412390EA010F40F4800070474FF0000349
:4023000004E000BF10F0004348BF40425FEA000C08BF704743F0964301464FF000001CE050EA010208BF70474FF000030AE000BF50EA010208BF704711F0004302D54042CF
:4023400061EB41015FEA010C02BF84460146002043F0B64308BFA3F18053A3F50003BCFA8CF2083AA3EBC25310DB01FA02FC634400FA02FCC2F12002BCF1004F20FA02F217
:4023800043EB020008BF20F00100704702F1200201FA02FCC2F1200250EA4C0021FA02F243EB020008BF20EADC7070474FF0FF0C1CEAD0521EBF1CEAD15392EA0C0F93EA55
:4023C0000C0F6FD01A4480EA010C400218BF5FEA41211ED04FF0006343EA501043EA5111A0FB01310CF00040B1F5000F3EBF490041EAD3715B0040EA010062F17F02FD2A4A
:402400001DD8B3F1004F40EBC25008BF20F00100704790F0000F0CF0004C08BF49024CEA502040EA51207F3AC2BFD2F1FF0340EAC250704740F400004FF00003013A5DDCE2
:4024400012F1190FDCBF00F000407047C2F10002410021FA02F1C2F1200200FA02FC5FEA310040F1000053EA4C0308BF20EADC70704792F0000F00F0004C02BF400010F401
:40248000000F013AF9D040EA0C0093F0000F01F0004C02BF490011F4000F013BF9D041EA0C018FE70CEAD15392EA0C0F18BF93EA0C0F0AD030F0004C18BF31F0004CD8D1E0
:4024C00080EA010000F00040704790F0000F17BF90F0004F084691F0000F91F0004F14D092EA0C0F01D142020FD193EA0C0F03D14B0218BF084608D180EA010000F00040E5
:4025000040F0FE4040F40000704740F0FE4040F4400070474FF0FF0C1CEAD0521EBF1CEAD15392EA0C0F93EA0C0F69D0A2EB030280EA010C49024FEA402037D04FF08053C2
:4025400043EA111143EA10130CF000408B4238BF5B0042F17D024FF4000C8B4224BF5B1A40EA0C00B3EB510F24BFA3EB510340EA5C00B3EB910F24BFA3EB910340EA9C00B3
:40258000B3EBD10F24BFA3EBD10340EADC001B0118BF5FEA1C1CE0D1FD2A3FF650AF8B4240EBC25008BF20F0010070470CF0004C4CEA50207F32C2BFD2F1FF0340EAC25018
:4025C000704740F400004FF00003013A37E792F0000F00F0004C02BF400010F4000F013AF9D040EA0C0093F0000F01F0004C02BF490011F4000F013BF9D041EA0C0195E794
:402600000CEAD15392EA0C0F08D142027FF47DAF93EA0C0F7FF470AF084676E793EA0C0F04D14B023FF44CAF08466EE730F0004C18BF31F0004CCAD130F000427FF45CAFA2
:4026400031F000437FF43CAF5FE700BF42000ED2B2F1FE4F0BD34FF09E03B3EB126209D44FEA002343F0004323FA02F070474FF00000704712F1610F01D1420202D14FF0AB
:40268000FF3070474FF00000704700BF014B1868704700BF3C81FF1F0E4B70B51E460E4C0025E41AA410A54204D056F8253098470135F8E700F05AF8084B094C1E46E41AB1
:4026C000A4100025A54204D056F8253098470135F8E770BD7827000078270000782700008027000010B5431E0A44914204D011F8014B03F8014FF8E710BD03460244934233
:4027000002D003F8011BFAE770470000000000004D7565737472656F00000000416C666100000000426574610000000047616D6D61000000004F00400C00005100401000B5
:40274000405100403000F0510040100000000140001000140140000800400140000A004C014000020050014020004300F8B500BFF8BC08BC9E4670474D000000E517000043
:40278000F8B500BFF8BC08BC9E46704729000000A0270000C880FF1F7800000098000000000000000000E691CC2301004B000000E0D4730400000000000000000000000057
:4027C00000000000000000000000000000000000000000006A2700000000000000000000000000000000000000000000000000000000000000000000000000000000000048
:402800000000000000000000000000000000000000000000DC80FF1F000000000000000000000000000000000000000000000000000000000000000000000000000000001E
:402840000000000000000000000000000000000000000000000000000000000000000000000000000000000000000000000000000000000000000000000000000000000058
:402880000000000000000000000000000000000000000000000000000000000000000000000000000000000000000000000000000000000000000000000000000000000018
:4028C00000000000000000000000000000000000000000000000000000000000000000000000000000000000000000000000000000000000000000000000000000000000D8
:402900000000000000000000000000000000000000000000000000000000000000000000000000000000000000000000000000000000000000000000000000000000000097
:020000040003F7
:0200000480007A
:4000000001450040024F00400152004001640040270601401907014001090140040A0140010B0140031701400119014003400140024101400642014003430140054801405F
:4000400003490140034C01400350014001510140120201100A4B1901870D8E0592029B01A60CA901AE01B002B201B408B604B701BE04C040C105C5D1C720C823C9FFCAFF32
:40008000CBFFCDA0CF04D018D280D405D804D904DA04DB04DF01E040E2C0E440E540E6C0E8C0EAC0ECC0EEC0004009021022184019141B40224029103020404048224901F4
:4000C000500259055A807102C001C208C405CA04CC04D001D208D60BEE08AF0138023E0158045F011B01B740E608EE40E60830203610CC30A420A61010206302A420A61072
:40010000C410D640A610AF01EE1086109B10A610B710E6105B109B10D4801F208720C601000102140A01000E007F7F0000000000000B0B000000C000040000060200000096
:400140000000000000010100010002003D00180100000000000000000000000000000000000000000000000000000000000000000000000000000000000000000000000024
:40018000000000000000000000000000000000000000000000000000000000000000000000000000000000000000000000000000000000000000000000000000000000003F
:4001C00000000000000000000000000000000000000000000000000000000000000000000000000000000000000000000000000000000000000000000000000000000000FF
:4002000000000000000000000000000000000000000000000000000000000000000000000000000000000000000000000000000000000000000000000000000000000000BE
:40024000000000000000000000000000000000000000000000000000000000000000000000000000000000000000000000000000000000000000000000000000000000007E
:0200000490006A
:0400000000004005B7
:0200000490105A
:04000000BC90ACAF55
:0200000490303A
:020000002ED5FB
:0200000490402A
:4000000000000000000000000000000000000000000000000000000000000000000000000000000000000000000000000000000000000000000000000000000000000000C0
:400040000000000000000000000000000000000000000000000000000000000000000000000000000000000000000000000000000000000000000000000000000000000080
:400080000000000000000000000000000000000000000000000000000000000000000000000000000000000000000000000000000000000000000000000000000000000040
:4000C0000000000000000000000000000000000000000000000000000000000000000000000000000000000000000000000000000000000000000000000000000000000000
:0200000490501A
:0C00000000012E16106900012E273F3E63
:00000001FF