:4000000000800020110000005D1700005D17000008B5044B1A6803F53F5302331A6001F0A5FB00BFFA46004010B5054C237833B9044B13B10448AFF300800123237010BDEE
:400040004081FF1F0000000014260000084B10B51BB108490848AFF300800848036803B910BD074B002BFBD0BDE81040184700BF000000004481FF1F14260000C880FF1F9E
:400080000000000008B501F0C5FEC043C0B201F0B5FE1A4B1B78DBB2032B03D10022174B1A7004E0154A13780133DBB21370134B1B78DBB2032B1ED8DFE803F00209101781
:4000C000012001F0CBFD0E4801F0BAFD13E0012001F0C4FD0B4801F0B3FD0CE0012001F0BDFD094801F0ACFD05E0012001F0B6FD064801F0A5FD01F023FF08BD5C81FF1F6D
:4001000018260000242600002C2600003426000038B5074B1B7813F0FF0F0BD101F044FC002001F04DFC01F05DFCC4B201F0B1B95C81FF1FAE4B1B78DBB2012B40F03883FB
:40014000AC4CB4F86230A4F86430B4F86030A4F86230B4F85E30A4F86030B4F85C30A4F85E30B4F85A30A4F85C30B4F85830A4F85A30B4F85630A4F85830B4F85430A4F80D
:400180005630B4F85230A4F85430B4F85030A4F85230B4F84E30A4F85030B4F84C30A4F84E30B4F84A30A4F84C30B4F84830A4F84A30B4F84630A4F84830B4F84430A4F82F
:4001C0004630B4F84230A4F84430B4F84030A4F84230E38FA4F84030A38FE387638FA387238F6387E38E2387A38EE386638EA386238E6386E38D2386A38DE385638DA3852D
:40020000238D6385E38C2385A38CE384638CA384238C6384E38B2384A38BE383638BA383238B6383E38A2383A38AE382638AA382238A6382E3892382A389E3816389A38182
:4002400023896381E3882381A388E3806388A3802388638001F0A8FB002001F0B1FB01F0C1FB80B2208001F0D1FF634902F022F80546608801F0CAFF604902F01BF801468A
:40028000284601F00FFF0546A08801F0BFFF5C4902F010F80146284601F004FF0546E08801F0B4FF574902F005F80146284601F0F9FE0546208901F0A9FF524901F0FAFFD2
:4002C0000146284601F0EEFE0546608901F09EFF4D4901F0EFFF0146284601F0E3FE0546A08901F093FF494901F0E4FF0146284601F0D8FE0546E08901F088FF444901F02B
:40030000D9FF0146284601F0CDFE0546208A01F07DFF404901F0CEFF0146284601F0C2FE0546608A01F072FF3B4901F0C3FF0146284601F0B7FE0546A08A01F067FF3749F0
:4003400001F0B8FF0146284601F0ACFE0546E08A01F05CFF324901F0ADFF0146284601F0A1FE0546208B01F051FF2E4901F0A2FF0146284601F096FE0546608B01F046FF41
:40038000294901F097FF0146284601F08BFE0546A08B01F03BFF254901F08CFF0146284601F080FE0546E08B01F030FF204901F081FF0146284601F075FE0546208C01F0B5
:4003C00025FF1C4901F076FF0146284601F06AFE0546608C01F01AFF174901F06BFF0146284601F05FFE0546A08C01F00FFF25E05C81FF1F6481FF1F17B7D13A6C09F93A07
:4004000099BB163BC3642A3B6F12033B52491D3AE02D10BB3B70CEBBCA5441BC508D97BCCE88D2BC948705BDE3A51BBDC28627BD9D1125BD97FF10BDABCFD5BCB74901F047
:4004400039FF0146284601F02DFE0546E08C01F0DDFEB34901F02EFF0146284601F022FE0546208D01F0D2FEAE4901F023FF0146284601F017FE0546608D01F0C7FEAA49B1
:4004800001F018FF0146284601F00CFE0546A08D01F0BCFEA54901F00DFF0146284601F001FE0546E08D01F0B1FEA14901F002FF0146284601F0F6FD0546208E01F0A6FE76
:4004C0009C4901F0F7FE0146284601F0EBFD0546608E01F09BFE984901F0ECFE0146284601F0E0FD0546A08E01F090FE914901F0E1FE0146284601F0D5FD0546E08E01F0DD
:4005000085FE8B4901F0D6FE0146284601F0CAFD0546208F01F07AFE844901F0CBFE0146284601F0BFFD0546608F01F06FFE7E4901F0C0FE0146284601F0B4FD0546A08F07
:4005400001F064FE774901F0B5FE0146284601F0A9FD0546E08F01F059FE714901F0AAFE0146284601F09EFD0546B4F8400001F04DFE6A4901F09EFE0146284601F092FDFA
:400580000546B4F8420001F041FE6C4901F092FE0146284601F086FD0546B4F8440001F035FE674901F086FE0146284601F07AFD0546B4F8460001F029FE624901F07AFE69
:4005C0000146284601F06EFD0546B4F8480001F01DFE5D4901F06EFE0146284601F062FD0546B4F84A0001F011FE584901F062FE0146284601F056FD0546B4F84C0001F037
:4006000005FE534901F056FE0146284601F04AFD0546B4F84E0001F0F9FD4E4901F04AFE0146284601F03EFD0546B4F8500001F0EDFD494901F03EFE0146284601F032FD56
:400640000546B4F8520001F0E1FD444901F032FE0146284601F026FD0546B4F8540001F0D5FD3F4901F026FE0146284601F01AFD0546B4F8560001F0C9FD3A4901F01AFEF3
:400680000146284601F00EFD0546B4F8580001F0BDFD354901F00EFE0146284601F002FD0546B4F85A0001F0B1FD304901F002FE0146284601F0F6FC0546B4F85C0001F039
:4006C000A5FD2B4901F0F6FD0146284601F0EAFC0546B4F85E0001F099FD254901F0EAFD0146284601F0DEFC0546B4F8600001F08DFD204901F0DEFD0146284601F0D2FC57
:400700000546B4F8620001F081FD1B4901F0D2FD0146284601F0C6FC04462FE0CDCC4CBCBC74933B1283C03C0E4F2F3DFE65773DE3C7983DE86AAB3DA1F8B13DABCFD5BCB1
:4007400097FF10BD9D1125BDC28627BDE3A51BBD948705BDCE88D2BC508D97BCCA5441BC3B70CEBBE02D10BB52491D3A6F12033BC3642A3B99BB163B6C09F93A094BB3F859
:40078000640001F043FD084901F094FD0146204601F088FC054901F085FC01F0DBFEC4B200F077BE6481FF1F17B7D13A0000D842AE4B1B78DBB2022B40F03C83AC4CB4F8BB
:4007C0006230A4F86430B4F86030A4F86230B4F85E30A4F86030B4F85C30A4F85E30B4F85A30A4F85C30B4F85830A4F85A30B4F85630A4F85830B4F85430A4F85630B4F8F9
:400800005230A4F85430B4F85030A4F85230B4F84E30A4F85030B4F84C30A4F84E30B4F84A30A4F84C30B4F84830A4F84A30B4F84630A4F84830B4F84430A4F84630B4F8B8
:400840004230A4F84430B4F84030A4F84230E38FA4F84030A38FE387638FA387238F6387E38E2387A38EE386638EA386238E6386E38D2386A38DE385638DA385238D638530
:40088000E38C2385A38CE384638CA384238C6384E38B2384A38BE383638BA383238B6383E38A2383A38AE382638AA382238A6382E3892382A389E3816389A3812389638104
:4008C000E3882381A388E3806388A3802388638001F06AF8002001F073F801F083F880B2208001F093FC634901F0E4FC0546608801F08CFC604901F0DDFC0146284601F0F0
:40090000D1FB0546A08801F081FC5C4901F0D2FC0146284601F0C6FB0546E08801F076FC574901F0C7FC0146284601F0BBFB0546208901F06BFC534901F0BCFC0146284633
:4009400001F0B0FB0546608901F060FC4E4901F0B1FC0146284601F0A5FB0546A08901F055FC4A4901F0A6FC0146284601F09AFB0546E08901F04AFC454901F09BFC014680
:40098000284601F08FFB0546208A01F03FFC414901F090FC0146284601F084FB0546608A01F034FC3C4901F085FC0146284601F079FB0546A08A01F029FC384901F07AFC27
:4009C0000146284601F06EFB0546E08A01F01EFC334901F06FFC0146284601F063FB0546208B01F013FC2F4901F064FC0146284601F058FB0546608B01F008FC2A4901F005
:400A000059FC0146284601F04DFB0546A08B01F0FDFB264901F04EFC0146284601F042FB0546E08B01F0F2FB214901F043FC0146284601F037FB0546208C01F0E7FB1D4951
:400A400001F038FC0146284601F02CFB0546608C01F0DCFB184901F02DFC0146284601F021FB0546A08C01F0D1FB27E05C81FF1F6481FF1F6F1283BA89D2DEBA99BB163BB9
:400A8000FAEDEBBA17B7D1B9E02D103BC364AA3B4260E53B17B7D13B4260653B52499D3917B751B927A0893BE3A51BBD2E90A03C05A3923CFAEDEB3A8C4AEABCB74901F053
:400AC000F9FB0146284601F0EDFA0546E08C01F09DFBB34901F0EEFB0146284601F0E2FA0546208D01F092FBAE4901F0E3FB0146284601F0D7FA0546608D01F087FBAA498C
:400B000001F0D8FB0146284601F0CCFA0546A08D01F07CFBA54901F0CDFB0146284601F0C1FA0546E08D01F071FBA14901F0C2FB0146284601F0B6FA0546208E01F066FB4F
:400B40009C4901F0B7FB0146284601F0ABFA0546608E01F05BFB984901F0ACFB0146284601F0A0FA0546A08E01F050FB914901F0A1FB0146284601F095FA0546E08E01F06E
:400B800045FB8B4901F096FB0146284601F08AFA0546208F01F03AFB844901F08BFB0146284601F07FFA0546608F01F02FFB7E4901F080FB0146284601F074FA0546A08FDC
:400BC00001F024FB774901F075FB0146284601F069FA0546E08F01F019FB714901F06AFB0146284601F05EFA0546B4F8400001F00DFB6A4901F05EFB0146284601F052FACF
:400C00000546B4F8420001F001FB6C4901F052FB0146284601F046FA0546B4F8440001F0F5FA674901F046FB0146284601F03AFA0546B4F8460001F0E9FA624901F03AFBFC
:400C40000146284601F02EFA0546B4F8480001F0DDFA5D4901F02EFB0146284601F022FA0546B4F84A0001F0D1FA584901F022FB0146284601F016FA0546B4F84C0001F087
:400C8000C5FA534901F016FB0146284601F00AFA0546B4F84E0001F0B9FA4E4901F00AFB0146284601F0FEF90546B4F8500001F0ADFA494901F0FEFA0146284601F0F2F92F
:400CC0000546B4F8520001F0A1FA444901F0F2FA0146284601F0E6F90546B4F8540001F095FA3F4901F0E6FA0146284601F0DAF90546B4F8560001F089FA3A4901F0DAFA8A
:400D00000146284601F0CEF90546B4F8580001F07DFA354901F0CEFA0146284601F0C2F90546B4F85A0001F071FA304901F0C2FA0146284601F0B6F90546B4F85C0001F08B
:400D400065FA2B4901F0B6FA0146284601F0AAF90546B4F85E0001F059FA264901F0AAFA0146284601F09EF90546B4F8600001F04DFA214901F09EFA0146284601F092F929
:400D80000546B4F8620001F041FA1C4901F092FA0146284601F086F9044631E0931884BDECC0B9BDED9EBCBD90A078BD17B7D1BADE718A3DFFB2FB3DBC74133E8C4AEABC80
:400DC000FAEDEB3A05A3923C2E90A03CCDCC4C3C27A0893B17B751B952499D394260653B17B7D13B4260E53BC364AA3BE02D103B17B7D1B9FAEDEBBA27A009BB89D2DEBA3E
:400E0000094BB3F8640001F001FA084901F052FA0146204601F046F9054901F043F901F099FBC4B235E300BF6481FF1F6F1283BA0000D842AF4CB4F86230A4F86430B4F8BB
:400E40006030A4F86230B4F85E30A4F86030B4F85C30A4F85E30B4F85A30A4F85C30B4F85830A4F85A30B4F85630A4F85830B4F85430A4F85630B4F85230A4F85430B4F892
:400E80005030A4F85230B4F84E30A4F85030B4F84C30A4F84E30B4F84A30A4F84C30B4F84830A4F84A30B4F84630A4F84830B4F84430A4F84630B4F84230A4F84430B4F852
:400EC0004030A4F84230E38FA4F84030A38FE387638FA387238F6387E38E2387A38EE386638EA386238E6386E38D2386A38DE385638DA385238D6385E38C2385A38CE3842B
:400F0000638CA384238C6384E38B2384A38BE383638BA383238B6383E38A2383A38AE382638AA382238A6382E3892382A389E3816389A38123896381E3882381A388E3808D
:400F40006388A3802388638000F02EFD002000F037FD00F047FD80B2208001F057F9002101F0A8F90546608801F050F9624901F0A1F90146284601F095F80546A08801F042
:400F800045F95E4901F096F90146284601F08AF80546E08801F03AF9594901F08BF90146284601F07FF80546208901F02FF9554901F080F90146284601F074F8054660893E
:400FC00001F024F9504901F075F90146284601F069F80546A08901F019F94C4901F06AF90146284601F05EF80546E08901F00EF9474901F05FF90146284601F053F80546C7
:40100000208A01F003F9434901F054F90146284601F048F80546608A01F0F8F83E4901F049F90146284601F03DF80546A08A01F0EDF83A4901F03EF90146284601F032F8F8
:401040000546E08A01F0E2F8354901F033F90146284601F027F80546208B01F0D7F8314901F028F90146284601F01CF80546608B01F0CCF82C4901F01DF90146284601F087
:4010800011F80546A08B01F0C1F8284901F012F90146284601F006F80546E08B01F0B6F8234901F007F90146284600F0FBFF0546208C01F0ABF81F4901F0FCF80146284618
:4010C00000F0F0FF0546608C01F0A0F81A4901F0F1F80146284600F0E5FF0546A08C01F095F8164901F0E6F80146284600F0DAFF054625E06481FF1F17B7D1B899BB163B9B
:401100006F12033A6F1203BA6F12833A3B70CEBB5F294BBB52491D3B426065BBF4FD543C38F8423CAC8BDBBBE3A51BBD7A36ABBC4C3709BD1B2F5D3CF77560BC40A4DF3CD8
:40114000E08C01F063F8B84901F0B4F80146284600F0A8FF0546208D01F058F8B34901F0A9F80146284600F09DFF0546608D01F04DF8AF4901F09EF80146284600F092FFA2
:401180000546A08D01F042F8AA4901F093F80146284600F087FF0546E08D01F037F8A64901F088F80146284600F07CFF0546208E01F02CF8A14901F07DF80146284600F097
:4011C00071FF0546608E01F021F89D4901F072F80146284600F066FF0546A08E01F016F8964901F067F80146284600F05BFF0546E08E01F00BF8904901F05CF801462846CB
:4012000000F050FF0546208F01F000F8894901F051F80146284600F045FF0546608F00F0F5FF834901F046F80146284600F03AFF0546A08F00F0EAFF7C4901F03BF801461D
:40124000284600F02FFF0546E08F00F0DFFF764901F030F80146284600F024FF0546B4F8400000F0D3FF754901F024F80146284600F018FF0546B4F8420000F0C7FF714991
:4012800001F018F80146284600F00CFF0546B4F8440000F0BBFF6C4901F00CF80146284600F000FF0546B4F8460000F0AFFF674901F000F80146284600F0F4FE0546B4F848
:4012C000480000F0A3FF624900F0F4FF0146284600F0E8FE0546B4F84A0000F097FF5D4900F0E8FF0146284600F0DCFE0546B4F84C0000F08BFF584900F0DCFF014628465A
:4013000000F0D0FE0546B4F84E0000F07FFF534900F0D0FF0146284600F0C4FE0546B4F8500000F073FF4E4900F0C4FF0146284600F0B8FE0546B4F8520000F067FF4949FB
:4013400000F0B8FF0146284600F0ACFE0546B4F8540000F05BFF444900F0ACFF0146284600F0A0FE0546B4F8560000F04FFF3F4900F0A0FF0146284600F094FE0546B4F8A7
:40138000580000F043FF3A4900F094FF0146284600F088FE0546B4F85A0000F037FF354900F088FF0146284600F07CFE0546B4F85C0000F02BFF304900F07CFF01462846E1
:4013C00000F070FE0546B4F85E0000F01FFF2B4900F070FF0146284600F064FE0546B4F8600000F013FF264900F064FF0146284600F058FE0546B4F8620000F007FF214983
:4014000000F058FF0146284600F04CFE04461E4BB3F8640000F0FAFE002100F04BFF0146204600F03FFE31E07B14AE3DE8D9ACBCE2E9953C6A4DF3BC9B559FBE40A4DF3C95
:401440006B2BF63EF77560BC1B2F5D3C4C3709BD7A36ABBCDDB5043CAC8BDBBB38F8423CF4FD543C426065BB52491D3B5F294BBB3B70CEBB6F12833A6F1203BA6F12033A58
:40148000C3642A3B17B7D1B86481FF1F01F062F8C4B2204600F098FD04F16C00C0B200F0CBFA38BD08B562B600F024FC00F06EFA00F0FAFA00F036FD094800F0CDFC0120AE
:4014C00000F09CFC00F0CAFD064800F05BFD0021084600F01DFC044800F0B2FBFEE700BF110100008500000018260000F0B40022174611E050F82760F3B226F0FF0608E0B2
:4015000001EB420511F812406D78A5550132013BDBB2002BF4D10137132FEBD9F0BC704708B50A46002101F06CF808BDF8B5194B1B78DBB2184E3478E4B2184F3D78EDB2D5
:4015400003F00701164A11701B090132137044F00303337045F003033B708022114B1A70022220331A7040230F4A137002321370202302F28D121370082190321170033279
:4015800013700A2000F004FC3D7034704422074B1A70F8BDCF010049F8460040F94600406E5800401D510040095900407658004008B501F01BF808BD10B540F2EA22204BD8
:4015C0001A8018231F4A137041F62D51023211800232137004221C491C48FFF7E9FF02211B4B197008224FF040231A70194B1B78DBB2194A13700622184B1A70A3F5FE733C
:4016000000221A8007201870154802704824023004701A70033B197004220A331A70114A137843F003031370013A137843F001031370013A137843F08003137010BD00BF73
:4016400080400040824000404C01004800410040004300400D010049A14600400042004006400040A243004038B572B661222B4B1A70FFF7A1FF2A4A137843F0040313703A
:4016800000240CE0274D630019194A0011462A44084691882858FFF743FF0134E4B2082CF0D921494FF09040FFF720FF1F4A137843F0020313701032137843F00203137056
:4016C0001B4C237843F040032370A2F58632513A137843F010031370082216491648FFF767FF082215491648FFF762FF0A2215491548FFF75DFF082214491548FFF758FFC7
:40170000144A137843F008031370FFF70FFF0E2221461148FFF74CFF38BD00BF00480040E84600403C2600005000004803500140A043004028010048C25100403001004832
:40174000125100403801004820510040440100483251004022430040B043004008B500F019FF03680C2B00D1FEE7FEE708B5104E104D16E029686B68AC68002204E051F835
:40178000040B43F8040B0432A242F8D1E868002203E0002143F8041B04328242F9D11035013E002EE6D100F0FBFEFFF77BFEFEE7010000009826000008B5104A104B1A6008
:4017C000104A136843F40073136000230AE0032B03D80D4A52F8231000E00C490C4A42F8231001332F2BF2D90A4B1A780A4B1A70074A0A4B1A60FFF737FF08BD0004FA05E2
:401800000CED00E014ED00E0000000005D1700000080FF1FBC760040C080FF1F08ED00E008B50A280FD00C2802D0082806D102E04FF4805209E04FF4807206E0002000F051
:401840008FFA002201E04FF480620021094B198042F2107303FB02F303F6C413064A82FB0302DB17C3EBE223044A1360044B198008BD00BFD281FF1FAD8BDB68CC81FF1F34
:40188000D081FF1F38B500F0FFFB04461E4A137843F0020313701032137843F0020313701A3A137843F0010313701032137843F00103137002F5AA521A32137843F003033F
:4018C00013701822114B1A70013B1A7842F040021A701A7802F0FC021A70CE22053B1A700225A3F59753123B1D70094A137843F0080313700A2000F04BFA064B1D602046FE
:4019000000F0C6FB38BD00BFAB4300400E5900402F5B004080E200E010B504460A280DD00C2802D0082804D101E0C22207E0422205E0002000F014FAC22200E08222034B6F
:401940001A702046FFF76CFF10BD00BF0A59004008B5102000F0FAF90721012000F036FA0749012000F01EFA064A137843F0060313700820FFF7D0FF0022034B1A8008BDDF
:40198000FD19000009590040D481FF1F08B5054B1B7823B9FFF7DCFF0122024B1A70FFF771FF08BD5D81FF1F044B1A7802F0FB021A701A7842F001021A707047085900408B
:4019C00010B5074B1B7813F0010401D10028F8D024B1012000F0DCF9014B1B78204610BD09590040034B188880B2034B1B88C01A00B27047A25B0040D081FF1F704700BF8E
:401A0000054A137843F0080313701032137843F008031370704700BFA8430040054B1A7802F0FD021A701A7800F0020010431870704700BF2C580040014B1870704700BF9C
:401A4000835B0040064B1B78C3F3810303F19243063393F83831DBB2024A1370704700BF2C5800400B46004008B5064B1A7802F0F3021A701A7800F00C0010431870FFF79D
:401A8000E1FF08BD2C58004008B50023054A1370013213700420FFF7E7FF0220FFF7BEFF08BD00BF2C58004008B5074B1B7823B9FFF7EAFF0122044B1A70FFF7A1FF6420C5
:401AC000FFF7BAFF08BD00BF5E81FF1F10B50B4C237803F09F032370237803F0F00323702378184340F010002070012000F050F9237803F0EF03237010BD00BFC0510040B3
:401B000038B505460E4C237843F020032370237803F0BF032370002000F03AF9237803F0F003237023781D4345F010052570012000F02EF9237803F0EF03237038BD00BF7C
:401B4000C051004070B5354B1A7802F08002D2B21A7033490A7802F0F00242F00F020A7001310A7802F0F0020A7001310A7802F0F0020A701A7802F0DF021A701A7842F0E5
:401B800040021A704FF4CA76002000F001F9234D2B7843F010032B70012000F0F9F8214B1C78E4B22B7803F0EF032B70002000F0EFF804F00804E4B22B7843F010032B700C
:401BC000012000F0E5F82B7803F0EF032B7014B90A2000F0DDF8013E0CB1002ED4D10F4A137803F0BF031370137803F08003DBB213700232137803F0F00313700132137836
:401C000003F0F00343F00F0313700132137803F0F00343F00F03137070BD00BFC0510040C2510040C151004010B50446FFF78AFF2009FFF765FF04F00F00FFF761FF10BD71
:401C400038B505460078012404E0FFF7EDFF285D0134E4B20028F8D138BD00BF10B50446FFF770FF2009FFF731FF04F00F00FFF72DFF10BD08B5282000F074F80320FFF7A5
:401C800025FF052000F06EF80320FFF71FFF0F2000F068F80320FFF719FF012000F062F80220FFF713FF052000F05CF80620FFF7D5FF0E20FFF7D2FF2C20FFF7CFFF082083
:401CC000FFF7CCFF0120FFF7C9FF0C20FFF7C6FF0320FFF7C3FF052000F044F808BD00BF08B50C20FFF7BAFF0122014B1A7008BD5F81FF1F08B5054B5B7823B9FFF7BAFFEE
:401D00000122024B5A70FFF7EBFF08BD5F81FF1F08B5032819D8DFE800F002070D1381F08000FFF79BFF08BDA1F14000C0B2FFF795FF08BDA1F16C00C0B2FFF78FFF08BD7B
:401D4000A1F12C00C0B2FFF789FF08BD034B1A7800F0F80010431870704700BF0241004001BE704710B5044605E0084B186800F083F9A4F50044B4F5004FF6D8034B5868FA
:401D800000FB04F000F078F910BD00BFCC80FF1F08B5034B1B7A00FB03F000F06DF908BDCC80FF1F70B504460E46074B1D681F2802D90020FFF7D4FF04F01F04103455F87D
:401DC000240045F8246070BD08ED00E038B504460D46072902D90020FFF7C2FF1F2C02D90020FFF7BDFF04F01F0000F1604000F564406D01EDB2057038BD00BF044A13784C
:401E000003F0FD03400000F0020018431070704720510040024B1878C0F34000704700BF21510040014B1B681864704708ED00E04001C0B2014B1870704700BF00E400E0AA
:401E40000122014B1A60704700E100E00122014B1A60704780E100E010B50446FFF7F6FF2046FFF7DFFF0720FFF7E2FFFFF7E8FF10BD00BF084A137843F0010313701032AC
:401E8000137843F00103137002F64D32137843F001031370704700BFA3430040014B1870704700BF034F0040014B1880704700BF044F0040014B1880704700BF064F0040CD
:401EC00008B5154A137803F0010313700232137803F0FC031370114B1A7802F0CF021A701A7842F030021A701A7802F0F0021A701A7842F00F021A70094A137843F001035E
:401F000013702720FFF7D0FF2720FFF7D3FF0020FFF7C4FF08BD00BF004F00400B4F0040014F004008B5054B1B7823B9FFF7C8FF0122024B1A70FFF79DFF08BD6181FF1F63
:401F4000024B1878C0F38000704700BF82450040014B1B689865704708ED00E04001C0B2014B1870704700BF06E400E04022014B1A60704700E100E04022014B1A60704736
:401F800080E100E010B50446FFF7F6FF2046FFF7DFFF0720FFF7E2FFFFF7E8FF10BD00BF024A137843F080031370704777640040014B1870704700BF07640040014B18709A
:401FC000704700BF47640040014B1870704700BF27640040014B1870704700BF87640040014B1878704700BF67640040014B1878704700BF5764004008B501E0FFF7F6FFC3
:40200000FFF7EEFF10F0100FF8D108BD10B5114A137803F0C00343F0090313700E4C237843F001032370FF20FFF7C2FFFF20FFF7C5FF7F20FFF7C8FF0020FFF7CBFF00F053
:4020400023F8237843F01003237000F021F8FFF7D3FF10BD776400409764004008B5054B1B7823B9FFF7D2FF0122024B1A70FFF797FF08BD6281FF1F0230800803D000BF02
:4020800001380046FCD17047EFF3108072B6704780F31088704700BF80F0004002E000BF81F0004142001FBF5FEA410392EA030F7FEA226C7FEA236C6AD04FEA1262D2EB7A
:4020C0001363C1BFD218414048404140B8BF5B42192B88BF704710F0004F40F4000020F07F4018BF404211F0004F41F4000121F07F4118BF494292EA030F3FD0A2F1010289
:4021000041FA03FC10EB0C00C3F1200301FA03F100F0004302D5494260EB4000B0F5000F13D3B0F1807F06D340084FEA310102F10102FE2A51D2B1F1004F40EBC25008BF7C
:4021400020F0010040EA03007047490040EB000010F4000FA2F10102EDD1B0FA80FCACF1080CB2EB0C0200FA0CF0AABF00EBC25052421843BCBFD0401843704792F0000F94
:4021800081F4000106BF80F400000132013BB5E74FEA41037FEA226C18BF7FEA236C21D092EA030F04D092F0000F08BF0846704790EA010F1CBF0020704712F07F4F04D191
:4021C000400028BF40F00040704712F100723CBF00F50000704700F0004343F0FE4040F4000070477FEA226216BF08467FEA23630146420206BF5FEA412390EA010F40F42C
:40220000800070474FF0000304E000BF10F0004348BF40425FEA000C08BF704743F0964301464FF000001CE050EA010208BF70474FF000030AE000BF50EA010208BF7047F4
:4022400011F0004302D5404261EB41015FEA010C02BF84460146002043F0B64308BFA3F18053A3F50003BCFA8CF2083AA3EBC25310DB01FA02FC634400FA02FCC2F1200285
:40228000BCF1004F20FA02F243EB020008BF20F00100704702F1200201FA02FCC2F1200250EA4C0021FA02F243EB020008BF20EADC7070474FF0FF0C1CEAD0521EBF1CEA84
:4022C000D15392EA0C0F93EA0C0F6FD01A4480EA010C400218BF5FEA41211ED04FF0006343EA501043EA5111A0FB01310CF00040B1F5000F3EBF490041EAD3715B0040EA0F
:40230000010062F17F02FD2A1DD8B3F1004F40EBC25008BF20F00100704790F0000F0CF0004C08BF49024CEA502040EA51207F3AC2BFD2F1FF0340EAC250704740F400009D
:402340004FF00003013A5DDC12F1190FDCBF00F000407047C2F10002410021FA02F1C2F1200200FA02FC5FEA310040F1000053EA4C0308BF20EADC70704792F0000F00F09D
:40238000004C02BF400010F4000F013AF9D040EA0C0093F0000F01F0004C02BF490011F4000F013BF9D041EA0C018FE70CEAD15392EA0C0F18BF93EA0C0F0AD030F0004C7D
:4023C00018BF31F0004CD8D180EA010000F00040704790F0000F17BF90F0004F084691F0000F91F0004F14D092EA0C0F01D142020FD193EA0C0F03D14B0218BF084608D194
:4024000080EA010000F0004040F0FE4040F40000704740F0FE4040F4400070474FF0FF0C1CEAD0521EBF1CEAD15392EA0C0F93EA0C0F69D0A2EB030280EA010C49024FEAA1
:40244000402037D04FF0805343EA111143EA10130CF000408B4238BF5B0042F17D024FF4000C8B4224BF5B1A40EA0C00B3EB510F24BFA3EB510340EA5C00B3EB910F24BF23
:40248000A3EB910340EA9C00B3EBD10F24BFA3EBD10340EADC001B0118BF5FEA1C1CE0D1FD2A3FF650AF8B4240EBC25008BF20F0010070470CF0004C4CEA50207F32C2BF32
:4024C000D2F1FF0340EAC250704740F400004FF00003013A37E792F0000F00F0004C02BF400010F4000F013AF9D040EA0C0093F0000F01F0004C02BF490011F4000F013B11
:40250000F9D041EA0C0195E70CEAD15392EA0C0F08D142027FF47DAF93EA0C0F7FF470AF084676E793EA0C0F04D14B023FF44CAF08466EE730F0004C18BF31F0004CCAD106
:4025400030F000427FF45CAF31F000437FF43CAF5FE700BF42000ED2B2F1FE4F0BD34FF09E03B3EB126209D44FEA002343F0004323FA02F070474FF00000704712F1610FF4
:4025800001D1420202D14FF0FF3070474FF00000704700BF014B1868704700BF3C81FF1F0E4B70B51E460E4C0025E41AA410A54204D056F8253098470135F8E700F05AF894
:4025C000084B094C1E46E41AA4100025A54204D056F8253098470135F8E770BD8026000080260000802600008826000010B5431E0A44914204D011F8014B03F8014FF8E73F
:4026000010BD03460244934202D003F8011BFAE770470000000000004D7565737472656F00000000416C666100000000426574610000000047616D6D61000000004F004032
:402640000C00005100401000405100403000F0510040100000000140001000140140000800400140000A004C014000020050014020004300F8B500BFF8BC08BC9E467047E0
:402680004D000000B9170000F8B500BFF8BC08BC9E46704729000000A8260000C880FF1F7800000098000000000000000000E691CC2301004B000000E0D473040000000034
:4026C0000000000000000000000000000000000000000000000000000000000072260000000000000000000000000000000000000000000000000000000000000000000042
:4027000000000000000000000000000000000000000000000000000000000000DC80FF1F00000000000000000000000000000000000000000000000000000000000000001F
:402740000000000000000000000000000000000000000000000000000000000000000000000000000000000000000000000000000000000000000000000000000000000059
:402780000000000000000000000000000000000000000000000000000000000000000000000000000000000000000000000000000000000000000000000000000000000019
:4027C00000000000000000000000000000000000000000000000000000000000000000000000000000000000000000000000000000000000000000000000000000000000D9
:402800000000000000000000000000000000000000000000000000000000000000000000000000000000000000000000000000000000000000000000000000000000000098
:020000040003F7
:0200000480007A
:4000000001450040024F00400152004001640040270601401907014001090140040A0140010B0140031701400119014003400140024101400642014003430140054801405F
:4000400003490140034C01400350014001510140120201100A4B1901870D8E0592029B01A60CA901AE01B002B201B408B604B701BE04C040C105C5D1C720C823C9FFCAFF32
:40008000CBFFCDA0CF04D018D280D405D804D904DA04DB04DF01E040E2C0E440E540E6C0E8C0EAC0ECC0EEC0004009021022184019141B40224029103020404048224901F4
:4000C000500259055A807102C001C208C405CA04CC04D001D208D60BEE08AF0138023E0158045F011B01B740E608EE40E60830203610CC30A420A61010206302A420A61072
:40010000C410D640A610AF01EE1086109B10A610B710E6105B109B10D4801F208720C601000102140A01000E007F7F0000000000000B0B00000080000400000602000000D6
:400140000000000000010100010002003D00180100000000000000000000000000000000000000000000000000000000000000000000000000000000000000000000000024
:40018000000000000000000000000000000000000000000000000000000000000000000000000000000000000000000000000000000000000000000000000000000000003F
:4001C00000000000000000000000000000000000000000000000000000000000000000000000000000000000000000000000000000000000000000000000000000000000FF
:4002000000000000000000000000000000000000000000000000000000000000000000000000000000000000000000000000000000000000000000000000000000000000BE
:40024000000000000000000000000000000000000000000000000000000000000000000000000000000000000000000000000000000000000000000000000000000000007E
:0200000490006A
:0400000000004005B7
:0200000490105A
:04000000BC90ACAF55
:0200000490303A
:02000000D2C567
:0200000490402A
:4000000000000000000000000000000000000000000000000000000000000000000000000000000000000000000000000000000000000000000000000000000000000000C0
:400040000000000000000000000000000000000000000000000000000000000000000000000000000000000000000000000000000000000000000000000000000000000080
:400080000000000000000000000000000000000000000000000000000000000000000000000000000000000000000000000000000000000000000000000000000000000040
:4000C0000000000000000000000000000000000000000000000000000000000000000000000000000000000000000000000000000000000000000000000000000000000000
:0200000490501A
:0C00000000012E16106900012E26E32ED0
:00000001FF